{
  "_format": "hh-sol-artifact-1",
  "contractName": "ZKLendingPool",
  "sourceName": "src/ZKLendingPool.sol",
  "abi": [
    {
      "inputs": [
        {
          "internalType": "address",
          "name": "_zkVerifier",
          "type": "address"
        },
        {
          "internalType": "address",
          "name": "_commitmentRegistry",
          "type": "address"
        },
        {
          "internalType": "address",
          "name": "_borrowToken",
          "type": "address"
        },
        {
          "internalType": "uint256",
          "name": "_initialEthPrice",
          "type": "uint256"
        }
      ],
      "stateMutability": "nonpayable",
      "type": "constructor"
    },
    {
      "inputs": [],
      "name": "AlreadyHasDeposit",
      "type": "error"
    },
    {
      "inputs": [],
      "name": "ExceedsMaxLTV",
      "type": "error"
    },
    {
      "inputs": [],
      "name": "InsufficientCollateral",
      "type": "error"
    },
    {
      "inputs": [],
      "name": "InsufficientPoolLiquidity",
      "type": "error"
    },
    {
      "inputs": [],
      "name": "InvalidCommitment",
      "type": "error"
    },
    {
      "inputs": [],
      "name": "InvalidProof",
      "type": "error"
    },
    {
      "inputs": [],
      "name": "NoBorrow",
      "type": "error"
    },
    {
      "inputs": [],
      "name": "NoDeposit",
      "type": "error"
    },
    {
      "inputs": [],
      "name": "NotLiquidatable",
      "type": "error"
    },
    {
      "inputs": [
        {
          "internalType": "address",
          "name": "owner",
          "type": "address"
        }
      ],
      "name": "OwnableInvalidOwner",
      "type": "error"
    },
    {
      "inputs": [
        {
          "internalType": "address",
          "name": "account",
          "type": "address"
        }
      ],
      "name": "OwnableUnauthorizedAccount",
      "type": "error"
    },
    {
      "inputs": [],
      "name": "ReentrancyGuardReentrantCall",
      "type": "error"
    },
    {
      "inputs": [
        {
          "internalType": "address",
          "name": "token",
          "type": "address"
        }
      ],
      "name": "SafeERC20FailedOperation",
      "type": "error"
    },
    {
      "inputs": [],
      "name": "ZeroAddress",
      "type": "error"
    },
    {
      "inputs": [],
      "name": "ZeroAmount",
      "type": "error"
    },
    {
      "anonymous": false,
      "inputs": [
        {
          "indexed": true,
          "internalType": "address",
          "name": "user",
          "type": "address"
        },
        {
          "indexed": false,
          "internalType": "uint256",
          "name": "amount",
          "type": "uint256"
        },
        {
          "indexed": false,
          "internalType": "bytes32",
          "name": "debtCommitment",
          "type": "bytes32"
        },
        {
          "indexed": false,
          "internalType": "uint256",
          "name": "timestamp",
          "type": "uint256"
        }
      ],
      "name": "Borrowed",
      "type": "event"
    },
    {
      "anonymous": false,
      "inputs": [
        {
          "indexed": true,
          "internalType": "address",
          "name": "user",
          "type": "address"
        },
        {
          "indexed": false,
          "internalType": "bytes32",
          "name": "commitment",
          "type": "bytes32"
        },
        {
          "indexed": false,
          "internalType": "uint256",
          "name": "timestamp",
          "type": "uint256"
        }
      ],
      "name": "Deposited",
      "type": "event"
    },
    {
      "anonymous": false,
      "inputs": [
        {
          "indexed": true,
          "internalType": "address",
          "name": "user",
          "type": "address"
        },
        {
          "indexed": true,
          "internalType": "address",
          "name": "liquidator",
          "type": "address"
        },
        {
          "indexed": false,
          "internalType": "uint256",
          "name": "debtRepaid",
          "type": "uint256"
        },
        {
          "indexed": false,
          "internalType": "uint256",
          "name": "collateralSeized",
          "type": "uint256"
        },
        {
          "indexed": false,
          "internalType": "uint256",
          "name": "timestamp",
          "type": "uint256"
        }
      ],
      "name": "Liquidated",
      "type": "event"
    },
    {
      "anonymous": false,
      "inputs": [
        {
          "indexed": true,
          "internalType": "address",
          "name": "previousOwner",
          "type": "address"
        },
        {
          "indexed": true,
          "internalType": "address",
          "name": "newOwner",
          "type": "address"
        }
      ],
      "name": "OwnershipTransferred",
      "type": "event"
    },
    {
      "anonymous": false,
      "inputs": [
        {
          "indexed": false,
          "internalType": "uint256",
          "name": "oldPrice",
          "type": "uint256"
        },
        {
          "indexed": false,
          "internalType": "uint256",
          "name": "newPrice",
          "type": "uint256"
        }
      ],
      "name": "PriceUpdated",
      "type": "event"
    },
    {
      "anonymous": false,
      "inputs": [
        {
          "indexed": true,
          "internalType": "address",
          "name": "user",
          "type": "address"
        },
        {
          "indexed": false,
          "internalType": "uint256",
          "name": "amount",
          "type": "uint256"
        },
        {
          "indexed": false,
          "internalType": "uint256",
          "name": "timestamp",
          "type": "uint256"
        }
      ],
      "name": "Repaid",
      "type": "event"
    },
    {
      "anonymous": false,
      "inputs": [
        {
          "indexed": true,
          "internalType": "address",
          "name": "user",
          "type": "address"
        },
        {
          "indexed": false,
          "internalType": "bytes32",
          "name": "nullifier",
          "type": "bytes32"
        },
        {
          "indexed": false,
          "internalType": "uint256",
          "name": "timestamp",
          "type": "uint256"
        }
      ],
      "name": "Withdrawn",
      "type": "event"
    },
    {
      "inputs": [],
      "name": "LIQUIDATION_BONUS",
      "outputs": [
        {
          "internalType": "uint256",
          "name": "",
          "type": "uint256"
        }
      ],
      "stateMutability": "view",
      "type": "function"
    },
    {
      "inputs": [],
      "name": "LIQUIDATION_THRESHOLD",
      "outputs": [
        {
          "internalType": "uint256",
          "name": "",
          "type": "uint256"
        }
      ],
      "stateMutability": "view",
      "type": "function"
    },
    {
      "inputs": [],
      "name": "MAX_LTV",
      "outputs": [
        {
          "internalType": "uint256",
          "name": "",
          "type": "uint256"
        }
      ],
      "stateMutability": "view",
      "type": "function"
    },
    {
      "inputs": [],
      "name": "PERCENTAGE_BASE",
      "outputs": [
        {
          "internalType": "uint256",
          "name": "",
          "type": "uint256"
        }
      ],
      "stateMutability": "view",
      "type": "function"
    },
    {
      "inputs": [
        {
          "internalType": "uint256",
          "name": "amount",
          "type": "uint256"
        },
        {
          "internalType": "bytes32",
          "name": "debtCommitment",
          "type": "bytes32"
        },
        {
          "components": [
            {
              "internalType": "uint256[2]",
              "name": "a",
              "type": "uint256[2]"
            },
            {
              "internalType": "uint256[2][2]",
              "name": "b",
              "type": "uint256[2][2]"
            },
            {
              "internalType": "uint256[2]",
              "name": "c",
              "type": "uint256[2]"
            }
          ],
          "internalType": "struct IZKVerifier.Proof",
          "name": "collateralProof",
          "type": "tuple"
        },
        {
          "components": [
            {
              "internalType": "uint256[2]",
              "name": "a",
              "type": "uint256[2]"
            },
            {
              "internalType": "uint256[2][2]",
              "name": "b",
              "type": "uint256[2][2]"
            },
            {
              "internalType": "uint256[2]",
              "name": "c",
              "type": "uint256[2]"
            }
          ],
          "internalType": "struct IZKVerifier.Proof",
          "name": "ltvProof",
          "type": "tuple"
        },
        {
          "internalType": "uint256[]",
          "name": "publicInputs",
          "type": "uint256[]"
        }
      ],
      "name": "borrow",
      "outputs": [],
      "stateMutability": "nonpayable",
      "type": "function"
    },
    {
      "inputs": [],
      "name": "borrowToken",
      "outputs": [
        {
          "internalType": "contract IERC20",
          "name": "",
          "type": "address"
        }
      ],
      "stateMutability": "view",
      "type": "function"
    },
    {
      "inputs": [
        {
          "internalType": "address",
          "name": "",
          "type": "address"
        }
      ],
      "name": "borrowedAmount",
      "outputs": [
        {
          "internalType": "uint256",
          "name": "",
          "type": "uint256"
        }
      ],
      "stateMutability": "view",
      "type": "function"
    },
    {
      "inputs": [],
      "name": "commitmentRegistry",
      "outputs": [
        {
          "internalType": "contract ICommitmentRegistry",
          "name": "",
          "type": "address"
        }
      ],
      "stateMutability": "view",
      "type": "function"
    },
    {
      "inputs": [
        {
          "internalType": "bytes32",
          "name": "commitment",
          "type": "bytes32"
        }
      ],
      "name": "deposit",
      "outputs": [],
      "stateMutability": "payable",
      "type": "function"
    },
    {
      "inputs": [],
      "name": "ethPrice",
      "outputs": [
        {
          "internalType": "uint256",
          "name": "",
          "type": "uint256"
        }
      ],
      "stateMutability": "view",
      "type": "function"
    },
    {
      "inputs": [],
      "name": "getPoolStatus",
      "outputs": [
        {
          "internalType": "uint256",
          "name": "_totalCollateralETH",
          "type": "uint256"
        },
        {
          "internalType": "uint256",
          "name": "_totalBorrowedUSDC",
          "type": "uint256"
        },
        {
          "internalType": "uint256",
          "name": "availableLiquidity",
          "type": "uint256"
        }
      ],
      "stateMutability": "view",
      "type": "function"
    },
    {
      "inputs": [
        {
          "internalType": "address",
          "name": "user",
          "type": "address"
        }
      ],
      "name": "getUserPosition",
      "outputs": [
        {
          "internalType": "bool",
          "name": "_hasDeposit",
          "type": "bool"
        },
        {
          "internalType": "bool",
          "name": "_hasBorrow",
          "type": "bool"
        },
        {
          "internalType": "uint256",
          "name": "_borrowedAmount",
          "type": "uint256"
        },
        {
          "internalType": "bytes32",
          "name": "collateralCommitment",
          "type": "bytes32"
        },
        {
          "internalType": "bytes32",
          "name": "debtCommitment",
          "type": "bytes32"
        }
      ],
      "stateMutability": "view",
      "type": "function"
    },
    {
      "inputs": [
        {
          "internalType": "address",
          "name": "",
          "type": "address"
        }
      ],
      "name": "hasBorrow",
      "outputs": [
        {
          "internalType": "bool",
          "name": "",
          "type": "bool"
        }
      ],
      "stateMutability": "view",
      "type": "function"
    },
    {
      "inputs": [
        {
          "internalType": "address",
          "name": "",
          "type": "address"
        }
      ],
      "name": "hasDeposit",
      "outputs": [
        {
          "internalType": "bool",
          "name": "",
          "type": "bool"
        }
      ],
      "stateMutability": "view",
      "type": "function"
    },
    {
      "inputs": [
        {
          "internalType": "address",
          "name": "user",
          "type": "address"
        },
        {
          "components": [
            {
              "internalType": "uint256[2]",
              "name": "a",
              "type": "uint256[2]"
            },
            {
              "internalType": "uint256[2][2]",
              "name": "b",
              "type": "uint256[2][2]"
            },
            {
              "internalType": "uint256[2]",
              "name": "c",
              "type": "uint256[2]"
            }
          ],
          "internalType": "struct IZKVerifier.Proof",
          "name": "liquidationProof",
          "type": "tuple"
        },
        {
          "internalType": "uint256[]",
          "name": "publicInputs",
          "type": "uint256[]"
        }
      ],
      "name": "liquidate",
      "outputs": [],
      "stateMutability": "nonpayable",
      "type": "function"
    },
    {
      "inputs": [],
      "name": "owner",
      "outputs": [
        {
          "internalType": "address",
          "name": "",
          "type": "address"
        }
      ],
      "stateMutability": "view",
      "type": "function"
    },
    {
      "inputs": [],
      "name": "renounceOwnership",
      "outputs": [],
      "stateMutability": "nonpayable",
      "type": "function"
    },
    {
      "inputs": [
        {
          "internalType": "uint256",
          "name": "amount",
          "type": "uint256"
        },
        {
          "internalType": "bytes32",
          "name": "newDebtCommitment",
          "type": "bytes32"
        },
        {
          "internalType": "bytes32",
          "name": "nullifier",
          "type": "bytes32"
        }
      ],
      "name": "repay",
      "outputs": [],
      "stateMutability": "nonpayable",
      "type": "function"
    },
    {
      "inputs": [
        {
          "internalType": "uint256",
          "name": "amount",
          "type": "uint256"
        }
      ],
      "name": "supplyLiquidity",
      "outputs": [],
      "stateMutability": "nonpayable",
      "type": "function"
    },
    {
      "inputs": [],
      "name": "totalBorrowedUSDC",
      "outputs": [
        {
          "internalType": "uint256",
          "name": "",
          "type": "uint256"
        }
      ],
      "stateMutability": "view",
      "type": "function"
    },
    {
      "inputs": [],
      "name": "totalCollateralETH",
      "outputs": [
        {
          "internalType": "uint256",
          "name": "",
          "type": "uint256"
        }
      ],
      "stateMutability": "view",
      "type": "function"
    },
    {
      "inputs": [
        {
          "internalType": "address",
          "name": "newOwner",
          "type": "address"
        }
      ],
      "name": "transferOwnership",
      "outputs": [],
      "stateMutability": "nonpayable",
      "type": "function"
    },
    {
      "inputs": [
        {
          "internalType": "uint256",
          "name": "newPrice",
          "type": "uint256"
        }
      ],
      "name": "updatePrice",
      "outputs": [],
      "stateMutability": "nonpayable",
      "type": "function"
    },
    {
      "inputs": [
        {
          "internalType": "uint256",
          "name": "amount",
          "type": "uint256"
        },
        {
          "internalType": "bytes32",
          "name": "nullifier",
          "type": "bytes32"
        },
        {
          "components": [
            {
              "internalType": "uint256[2]",
              "name": "a",
              "type": "uint256[2]"
            },
            {
              "internalType": "uint256[2][2]",
              "name": "b",
              "type": "uint256[2][2]"
            },
            {
              "internalType": "uint256[2]",
              "name": "c",
              "type": "uint256[2]"
            }
          ],
          "internalType": "struct IZKVerifier.Proof",
          "name": "withdrawProof",
          "type": "tuple"
        },
        {
          "internalType": "uint256[]",
          "name": "publicInputs",
          "type": "uint256[]"
        }
      ],
      "name": "withdraw",
      "outputs": [],
      "stateMutability": "nonpayable",
      "type": "function"
    },
    {
      "inputs": [],
      "name": "zkVerifier",
      "outputs": [
        {
          "internalType": "contract IZKVerifier",
          "name": "",
          "type": "address"
        }
      ],
      "stateMutability": "view",
      "type": "function"
    },
    {
      "stateMutability": "payable",
      "type": "receive"
    }
  ],
  "bytecode": "0x60e06040523480156200001157600080fd5b5060405162001ff338038062001ff3833981016040819052620000349162000198565b600160005533806200006057604051631e4fbdf760e01b81526000600482015260240160405180910390fd5b6200006b8162000129565b506001600160a01b038416620000945760405163d92e233d60e01b815260040160405180910390fd5b6001600160a01b038316620000bc5760405163d92e233d60e01b815260040160405180910390fd5b6001600160a01b038216620000e45760405163d92e233d60e01b815260040160405180910390fd5b806000036200010657604051631f2a200560e01b815260040160405180910390fd5b6001600160a01b0393841660805291831660a05290911660c052600255620001ea565b600180546001600160a01b038381166001600160a01b0319831681179093556040519116919082907f8be0079c531659141344cd1fd0a4f28419497f9722a3daafe3b4186f6b6457e090600090a35050565b80516001600160a01b03811681146200019357600080fd5b919050565b60008060008060808587031215620001af57600080fd5b620001ba856200017b565b9350620001ca602086016200017b565b9250620001da604086016200017b565b6060959095015193969295505050565b60805160a05160c051611d4d620002a6600039600081816102320152818161088601528181610a3701528181610ce401528181610dca015281816110ad015261129001526000818161027e01528181610654015281816106fe015281816108bb01528181610ab601528181610b7f01528181610c0401528181610fe0015281816113700152818161144f015261165a0152600081816104740152818161059d01528181610e7601528181610f2c01526111d20152611d4d6000f3fe60806040526004361061016a5760003560e01c806387c13943116100d15780639d7302a81161008a578063e282196411610064578063e282196414610496578063e73ce2ac146104ac578063f2fde38b146104dc578063ff186b2e146104fc57600080fd5b80639d7302a81461042f578063b214faa51461044f578063d6df096d1461046257600080fd5b806387c139431461037a5780638a8dd6641461038f5780638d6cc56d146103af5780638da5cb5b146103cf57806390a8ae9b146103ed578063948adb8f1461040257600080fd5b80635b7c2dad116101235780635b7c2dad146102a0578063715018a6146102ea57806374175cd4146102ff57806377911d66146103155780637f79496c1461033557806381bf8d3d1461036557600080fd5b80631c48c7ec146101765780632d02d84e146101bb5780633574d4c4146101dd5780633ea1025f14610200578063456dc17a1461022057806355b87ed61461026c57600080fd5b3661017157005b600080fd5b34801561018257600080fd5b506101a6610191366004611945565b60056020526000908152604090205460ff1681565b60405190151581526020015b60405180910390f35b3480156101c757600080fd5b506101db6101d63660046119cc565b610512565b005b3480156101e957600080fd5b506101f2600581565b6040519081526020016101b2565b34801561020c57600080fd5b506101db61021b366004611a37565b610871565b34801561022c57600080fd5b506102547f000000000000000000000000000000000000000000000000000000000000000081565b6040516001600160a01b0390911681526020016101b2565b34801561027857600080fd5b506102547f000000000000000000000000000000000000000000000000000000000000000081565b3480156102ac57600080fd5b506102c06102bb366004611945565b6108b1565b6040805195151586529315156020860152928401919091526060830152608082015260a0016101b2565b3480156102f657600080fd5b506101db61099b565b34801561030b57600080fd5b506101f260035481565b34801561032157600080fd5b506101db610330366004611a50565b6109af565b34801561034157600080fd5b5061034a610cb6565b604080519384526020840192909252908201526060016101b2565b34801561037157600080fd5b506101f2604b81565b34801561038657600080fd5b506101f2606481565b34801561039b57600080fd5b506101db6103aa366004611a7c565b610d5a565b3480156103bb57600080fd5b506101db6103ca366004611a37565b61112a565b3480156103db57600080fd5b506001546001600160a01b0316610254565b3480156103f957600080fd5b506101f2605081565b34801561040e57600080fd5b506101f261041d366004611945565b60076020526000908152604090205481565b34801561043b57600080fd5b506101db61044a366004611af9565b611177565b6101db61045d366004611a37565b6115cb565b34801561046e57600080fd5b506102547f000000000000000000000000000000000000000000000000000000000000000081565b3480156104a257600080fd5b506101f260045481565b3480156104b857600080fd5b506101a66104c7366004611945565b60066020526000908152604090205460ff1681565b3480156104e857600080fd5b506101db6104f7366004611945565b61173c565b34801561050857600080fd5b506101f260025481565b61051a611777565b8460000361053b57604051631f2a200560e01b815260040160405180910390fd5b3360009081526005602052604090205460ff1661056b57604051633a6a68b160e01b815260040160405180910390fd5b3360009081526006602052604090205460ff161561063c57604051634e8f7ce160e11b81526000906001600160a01b037f00000000000000000000000000000000000000000000000000000000000000001690639d1ef9c2906105d990600190889088908890600401611b73565b602060405180830381865afa1580156105f6573d6000803e3d6000fd5b505050506040513d601f19601f8201168201806040525081019061061a9190611c07565b90508061063a57604051635296a20960e11b815260040160405180910390fd5b505b6040516318848ebd60e11b81523360048201526000907f00000000000000000000000000000000000000000000000000000000000000006001600160a01b0316906331091d7a906024016040805180830381865afa1580156106a2573d6000803e3d6000fd5b505050506040513d601f19601f820116820180604052508101906106c69190611c29565b503360009081526006602052604090205490915060ff1661077a5760405163e3c0d8d560e01b815260048101829052602481018690527f00000000000000000000000000000000000000000000000000000000000000006001600160a01b03169063e3c0d8d590604401600060405180830381600087803b15801561074a57600080fd5b505af115801561075e573d6000803e3d6000fd5b5050336000908152600560205260409020805460ff1916905550505b856003600082825461078c9190611c63565b9091555050604051600090339088908381818185875af1925050503d80600081146107d3576040519150601f19603f3d011682016040523d82523d6000602084013e6107d8565b606091505b50509050806108245760405162461bcd60e51b8152602060048201526013602482015272115512081d1c985b9cd9995c8819985a5b1959606a1b60448201526064015b60405180910390fd5b6040805187815242602082015233917f1353fec506e912e37c0fbf3dddb0aa594d9b70ae58b1cc56ee735f589c351b68910160405180910390a2505061086a6001600055565b5050505050565b6108796117a1565b6108ae6001600160a01b037f0000000000000000000000000000000000000000000000000000000000000000163330846117ce565b50565b60008060008060007f00000000000000000000000000000000000000000000000000000000000000006001600160a01b03166331091d7a876040518263ffffffff1660e01b815260040161091491906001600160a01b0391909116815260200190565b6040805180830381865afa158015610930573d6000803e3d6000fd5b505050506040513d601f19601f820116820180604052508101906109549190611c29565b6001600160a01b0388166000908152600560209081526040808320546006835281842054600790935292205460ff9283169950911696509450909250905091939590929450565b6109a36117a1565b6109ad6000611835565b565b6109b7611777565b826000036109d857604051631f2a200560e01b815260040160405180910390fd5b3360009081526006602052604090205460ff16610a085760405163ec8de8e160e01b815260040160405180910390fd5b3360009081526007602052604081205490818511610a265784610a28565b815b9050610a5f6001600160a01b037f0000000000000000000000000000000000000000000000000000000000000000163330846117ce565b3360009081526007602052604081208054839290610a7e908490611c63565b925050819055508060046000828254610a979190611c63565b90915550506040516318848ebd60e11b815233600482015260009081907f00000000000000000000000000000000000000000000000000000000000000006001600160a01b0316906331091d7a906024016040805180830381865afa158015610b04573d6000803e3d6000fd5b505050506040513d601f19601f82011682018060405250810190610b289190611c29565b3360009081526007602052604081205492945090925003610be0573360009081526006602052604090819020805460ff191690555163e3c0d8d560e01b815260048101829052602481018690526001600160a01b037f0000000000000000000000000000000000000000000000000000000000000000169063e3c0d8d590604401600060405180830381600087803b158015610bc357600080fd5b505af1158015610bd7573d6000803e3d6000fd5b50505050610c69565b604051635281e5d960e01b81526004810182905260248101879052604481018690527f00000000000000000000000000000000000000000000000000000000000000006001600160a01b031690635281e5d990606401600060405180830381600087803b158015610c5057600080fd5b505af1158015610c64573d6000803e3d6000fd5b505050505b6040805184815242602082015233917f1b8cd61ed43bec7c6bdad3a18ffee613f99c853d16c50678d248d879e1b43438910160405180910390a250505050610cb16001600055565b505050565b600354600480546040516370a0823160e01b8152309281019290925260009283928392906001600160a01b037f000000000000000000000000000000000000000000000000000000000000000016906370a0823190602401602060405180830381865afa158015610d2b573d6000803e3d6000fd5b505050506040513d601f19601f82011682018060405250810190610d4f9190611c7c565b925092509250909192565b610d62611777565b85600003610d8357604051631f2a200560e01b815260040160405180910390fd5b3360009081526005602052604090205460ff16610db357604051633a6a68b160e01b815260040160405180910390fd5b6040516370a0823160e01b815230600482015286907f00000000000000000000000000000000000000000000000000000000000000006001600160a01b0316906370a0823190602401602060405180830381865afa158015610e19573d6000803e3d6000fd5b505050506040513d601f19601f82011682018060405250810190610e3d9190611c7c565b1015610e5c57604051636bb2792960e01b815260040160405180910390fd5b604051634e8f7ce160e11b81526000906001600160a01b037f00000000000000000000000000000000000000000000000000000000000000001690639d1ef9c290610eb1908490899088908890600401611b73565b602060405180830381865afa158015610ece573d6000803e3d6000fd5b505050506040513d601f19601f82011682018060405250810190610ef29190611c07565b905080610f12576040516309bde33960e01b815260040160405180910390fd5b604051634e8f7ce160e11b81526000906001600160a01b037f00000000000000000000000000000000000000000000000000000000000000001690639d1ef9c290610f6890600190899089908990600401611b73565b602060405180830381865afa158015610f85573d6000803e3d6000fd5b505050506040513d601f19601f82011682018060405250810190610fa99190611c07565b905080610fc957604051635296a20960e11b815260040160405180910390fd5b604051638307d15f60e01b81526001600160a01b037f00000000000000000000000000000000000000000000000000000000000000001690638307d15f9061101a908a906001903390600401611c95565b600060405180830381600087803b15801561103457600080fd5b505af1158015611048573d6000803e3d6000fd5b5050336000908152600660209081526040808320805460ff191660011790556007909152812080548c9450909250611081908490611ccb565b92505081905550876004600082825461109a9190611ccb565b909155506110d490506001600160a01b037f000000000000000000000000000000000000000000000000000000000000000016338a611887565b60408051898152602081018990524281830152905133917ff3c2829f643c0d57ad995671952fd58c64278013707e0d27bd8a709918b7da79919081900360600190a250506111226001600055565b505050505050565b6111326117a1565b600280549082905560408051828152602081018490527f945c1c4e99aa89f648fbfe3df471b916f719e16d960fcec0737d4d56bd696838910160405180910390a15050565b61117f611777565b6001600160a01b03841660009081526006602052604090205460ff166111b85760405163ec8de8e160e01b815260040160405180910390fd5b604051634e8f7ce160e11b81526000906001600160a01b037f00000000000000000000000000000000000000000000000000000000000000001690639d1ef9c29061120e90600290889088908890600401611b73565b602060405180830381865afa15801561122b573d6000803e3d6000fd5b505050506040513d601f19601f8201168201806040525081019061124f9190611c07565b90508061126f57604051636ef5bcdd60e11b815260040160405180910390fd5b6001600160a01b03808616600090815260076020526040902054906112b8907f0000000000000000000000000000000000000000000000000000000000000000163330846117ce565b600060646112c7600582611ccb565b6112d19084611cde565b6112db9190611cf5565b905060006002548268056bc75e2d631000006112f79190611cde565b6113019190611cf5565b6001600160a01b0389166000908152600760205260408120819055600480549293508592909190611333908490611c63565b90915550506001600160a01b03888116600081815260066020526040808220805460ff19169055516318848ebd60e11b81526004810192909252917f000000000000000000000000000000000000000000000000000000000000000016906331091d7a906024016040805180830381865afa1580156113b6573d6000803e3d6000fd5b505050506040513d601f19601f820116820180604052508101906113da9190611c29565b6040516bffffffffffffffffffffffff1960608d901b1660208201524260348201526a3634b8bab4b230ba34b7b760a91b605482015290925060009150605f0160408051808303601f1901815290829052805160209091012063e3c0d8d560e01b8252600482018490526024820181905291507f00000000000000000000000000000000000000000000000000000000000000006001600160a01b03169063e3c0d8d590604401600060405180830381600087803b15801561149b57600080fd5b505af11580156114af573d6000803e3d6000fd5b505050506003548311156114c35760035492505b82600360008282546114d59190611c63565b9091555050604051600090339085908381818185875af1925050503d806000811461151c576040519150601f19603f3d011682016040523d82523d6000602084013e611521565b606091505b50509050806115685760405162461bcd60e51b8152602060048201526013602482015272115512081d1c985b9cd9995c8819985a5b1959606a1b604482015260640161081b565b60408051878152602081018690524281830152905133916001600160a01b038e16917ffcbc974bf3a532baf2bb229db3c37fd58299b62d2d1db6a855dac5b693bb6ff39181900360600190a3505050505050506115c56001600055565b50505050565b6115d3611777565b346000036115f457604051631f2a200560e01b815260040160405180910390fd5b3360009081526005602052604090205460ff161561162557604051639d816adf60e01b815260040160405180910390fd5b8061164357604051636033c4fd60e11b815260040160405180910390fd5b604051638307d15f60e01b81526001600160a01b037f00000000000000000000000000000000000000000000000000000000000000001690638307d15f906116949084906000903390600401611c95565b600060405180830381600087803b1580156116ae57600080fd5b505af11580156116c2573d6000803e3d6000fd5b5050336000908152600560205260408120805460ff19166001179055600380543494509092506116f3908490611ccb565b90915550506040805182815242602082015233917ffe447f84c02bd3d47e0f77ccc68779ac1a79d4a2e3a0a66f626b495f8bf88084910160405180910390a26108ae6001600055565b6117446117a1565b6001600160a01b03811661176e57604051631e4fbdf760e01b81526000600482015260240161081b565b6108ae81611835565b60026000540361179a57604051633ee5aeb560e01b815260040160405180910390fd5b6002600055565b6001546001600160a01b031633146109ad5760405163118cdaa760e01b815233600482015260240161081b565b6040516001600160a01b0384811660248301528381166044830152606482018390526115c59186918216906323b872dd906084015b604051602081830303815290604052915060e01b6020820180516001600160e01b0383818316178352505050506118b8565b600180546001600160a01b038381166001600160a01b0319831681179093556040519116919082907f8be0079c531659141344cd1fd0a4f28419497f9722a3daafe3b4186f6b6457e090600090a35050565b6040516001600160a01b03838116602483015260448201839052610cb191859182169063a9059cbb90606401611803565b600080602060008451602086016000885af1806118db576040513d6000823e3d81fd5b50506000513d915081156118f3578060011415611900565b6001600160a01b0384163b155b156115c557604051635274afe760e01b81526001600160a01b038516600482015260240161081b565b80356001600160a01b038116811461194057600080fd5b919050565b60006020828403121561195757600080fd5b61196082611929565b9392505050565b6000610100828403121561197a57600080fd5b50919050565b60008083601f84011261199257600080fd5b50813567ffffffffffffffff8111156119aa57600080fd5b6020830191508360208260051b85010111156119c557600080fd5b9250929050565b600080600080600061016086880312156119e557600080fd5b85359450602086013593506119fd8760408801611967565b925061014086013567ffffffffffffffff811115611a1a57600080fd5b611a2688828901611980565b969995985093965092949392505050565b600060208284031215611a4957600080fd5b5035919050565b600080600060608486031215611a6557600080fd5b505081359360208301359350604090920135919050565b6000806000806000806102608789031215611a9657600080fd5b8635955060208701359450611aae8860408901611967565b9350611abe886101408901611967565b925061024087013567ffffffffffffffff811115611adb57600080fd5b611ae789828a01611980565b979a9699509497509295939492505050565b6000806000806101408587031215611b1057600080fd5b611b1985611929565b9350611b288660208701611967565b925061012085013567ffffffffffffffff811115611b4557600080fd5b611b5187828801611980565b95989497509550505050565b634e487b7160e01b600052602160045260246000fd5b600061014060038710611b8857611b88611b5d565b8683526040808760208601376060840181880160005b6002811015611bbb57838284379183019190830190600101611b9e565b5050508060c0880160e086013750610120830181905282018390526101606001600160fb1b03841115611bed57600080fd5b8360051b8086838601379290920190910195945050505050565b600060208284031215611c1957600080fd5b8151801515811461196057600080fd5b60008060408385031215611c3c57600080fd5b505080516020909101519092909150565b634e487b7160e01b600052601160045260246000fd5b81810381811115611c7657611c76611c4d565b92915050565b600060208284031215611c8e57600080fd5b5051919050565b8381526060810160028410611cac57611cac611b5d565b60208201939093526001600160a01b0391909116604090910152919050565b80820180821115611c7657611c76611c4d565b8082028115828204841417611c7657611c76611c4d565b600082611d1257634e487b7160e01b600052601260045260246000fd5b50049056fea2646970667358221220b6eb501b2523ed92c19fbb0aeefc8da097fb99295a7d32783e3eda1cea1e5e2b64736f6c63430008140033",
  "linkReferences": {},
  "deployedLinkReferences": {}
}