{
  "_format": "hh-sol-artifact-1",
  "contractName": "CommitmentRegistry",
  "sourceName": "src/CommitmentRegistry.sol",
  "abi": [
    {
      "inputs": [],
      "stateMutability": "nonpayable",
      "type": "constructor"
    },
    {
      "inputs": [],
      "name": "CommitmentAlreadyExists",
      "type": "error"
    },
    {
      "inputs": [],
      "name": "CommitmentAlreadyNullified",
      "type": "error"
    },
    {
      "inputs": [],
      "name": "CommitmentDoesNotExist",
      "type": "error"
    },
    {
      "inputs": [],
      "name": "NotCommitmentOwner",
      "type": "error"
    },
    {
      "inputs": [],
      "name": "NullifierAlreadyUsed",
      "type": "error"
    },
    {
      "inputs": [
        {
          "internalType": "address",
          "name": "owner",
          "type": "address"
        }
      ],
      "name": "OwnableInvalidOwner",
      "type": "error"
    },
    {
      "inputs": [
        {
          "internalType": "address",
          "name": "account",
          "type": "address"
        }
      ],
      "name": "OwnableUnauthorizedAccount",
      "type": "error"
    },
    {
      "inputs": [],
      "name": "UnauthorizedCaller",
      "type": "error"
    },
    {
      "inputs": [],
      "name": "ZeroCommitment",
      "type": "error"
    },
    {
      "anonymous": false,
      "inputs": [
        {
          "indexed": true,
          "internalType": "address",
          "name": "user",
          "type": "address"
        },
        {
          "indexed": true,
          "internalType": "bytes32",
          "name": "commitment",
          "type": "bytes32"
        },
        {
          "indexed": false,
          "internalType": "bytes32",
          "name": "nullifier",
          "type": "bytes32"
        },
        {
          "indexed": false,
          "internalType": "uint256",
          "name": "timestamp",
          "type": "uint256"
        }
      ],
      "name": "CommitmentNullified",
      "type": "event"
    },
    {
      "anonymous": false,
      "inputs": [
        {
          "indexed": true,
          "internalType": "address",
          "name": "user",
          "type": "address"
        },
        {
          "indexed": true,
          "internalType": "bytes32",
          "name": "commitment",
          "type": "bytes32"
        },
        {
          "indexed": false,
          "internalType": "enum ICommitmentRegistry.CommitmentType",
          "name": "commitmentType",
          "type": "uint8"
        },
        {
          "indexed": false,
          "internalType": "uint256",
          "name": "timestamp",
          "type": "uint256"
        }
      ],
      "name": "CommitmentRegistered",
      "type": "event"
    },
    {
      "anonymous": false,
      "inputs": [
        {
          "indexed": true,
          "internalType": "address",
          "name": "previousOwner",
          "type": "address"
        },
        {
          "indexed": true,
          "internalType": "address",
          "name": "newOwner",
          "type": "address"
        }
      ],
      "name": "OwnershipTransferred",
      "type": "event"
    },
    {
      "inputs": [
        {
          "internalType": "address",
          "name": "",
          "type": "address"
        }
      ],
      "name": "authorizedCallers",
      "outputs": [
        {
          "internalType": "bool",
          "name": "",
          "type": "bool"
        }
      ],
      "stateMutability": "view",
      "type": "function"
    },
    {
      "inputs": [
        {
          "internalType": "address",
          "name": "",
          "type": "address"
        }
      ],
      "name": "collateralCommitments",
      "outputs": [
        {
          "internalType": "bytes32",
          "name": "",
          "type": "bytes32"
        }
      ],
      "stateMutability": "view",
      "type": "function"
    },
    {
      "inputs": [
        {
          "internalType": "bytes32",
          "name": "",
          "type": "bytes32"
        }
      ],
      "name": "commitmentExists",
      "outputs": [
        {
          "internalType": "bool",
          "name": "",
          "type": "bool"
        }
      ],
      "stateMutability": "view",
      "type": "function"
    },
    {
      "inputs": [
        {
          "internalType": "bytes32",
          "name": "",
          "type": "bytes32"
        }
      ],
      "name": "commitmentOwner",
      "outputs": [
        {
          "internalType": "address",
          "name": "",
          "type": "address"
        }
      ],
      "stateMutability": "view",
      "type": "function"
    },
    {
      "inputs": [
        {
          "internalType": "bytes32",
          "name": "",
          "type": "bytes32"
        }
      ],
      "name": "commitmentTypes",
      "outputs": [
        {
          "internalType": "enum ICommitmentRegistry.CommitmentType",
          "name": "",
          "type": "uint8"
        }
      ],
      "stateMutability": "view",
      "type": "function"
    },
    {
      "inputs": [
        {
          "internalType": "address",
          "name": "",
          "type": "address"
        }
      ],
      "name": "debtCommitments",
      "outputs": [
        {
          "internalType": "bytes32",
          "name": "",
          "type": "bytes32"
        }
      ],
      "stateMutability": "view",
      "type": "function"
    },
    {
      "inputs": [
        {
          "internalType": "bytes32",
          "name": "commitment",
          "type": "bytes32"
        }
      ],
      "name": "getCommitmentOwner",
      "outputs": [
        {
          "internalType": "address",
          "name": "",
          "type": "address"
        }
      ],
      "stateMutability": "view",
      "type": "function"
    },
    {
      "inputs": [
        {
          "internalType": "bytes32",
          "name": "commitment",
          "type": "bytes32"
        }
      ],
      "name": "getCommitmentType",
      "outputs": [
        {
          "internalType": "enum ICommitmentRegistry.CommitmentType",
          "name": "",
          "type": "uint8"
        }
      ],
      "stateMutability": "view",
      "type": "function"
    },
    {
      "inputs": [
        {
          "internalType": "address",
          "name": "user",
          "type": "address"
        }
      ],
      "name": "getUserCommitments",
      "outputs": [
        {
          "internalType": "bytes32",
          "name": "collateralCommitment",
          "type": "bytes32"
        },
        {
          "internalType": "bytes32",
          "name": "debtCommitment",
          "type": "bytes32"
        }
      ],
      "stateMutability": "view",
      "type": "function"
    },
    {
      "inputs": [
        {
          "internalType": "bytes32",
          "name": "nullifier",
          "type": "bytes32"
        }
      ],
      "name": "isNullifierUsed",
      "outputs": [
        {
          "internalType": "bool",
          "name": "",
          "type": "bool"
        }
      ],
      "stateMutability": "view",
      "type": "function"
    },
    {
      "inputs": [
        {
          "internalType": "bytes32",
          "name": "commitment",
          "type": "bytes32"
        }
      ],
      "name": "isValidCommitment",
      "outputs": [
        {
          "internalType": "bool",
          "name": "",
          "type": "bool"
        }
      ],
      "stateMutability": "view",
      "type": "function"
    },
    {
      "inputs": [
        {
          "internalType": "bytes32",
          "name": "",
          "type": "bytes32"
        }
      ],
      "name": "nullifiers",
      "outputs": [
        {
          "internalType": "bool",
          "name": "",
          "type": "bool"
        }
      ],
      "stateMutability": "view",
      "type": "function"
    },
    {
      "inputs": [
        {
          "internalType": "bytes32",
          "name": "commitment",
          "type": "bytes32"
        },
        {
          "internalType": "bytes32",
          "name": "nullifier",
          "type": "bytes32"
        }
      ],
      "name": "nullifyCommitment",
      "outputs": [],
      "stateMutability": "nonpayable",
      "type": "function"
    },
    {
      "inputs": [],
      "name": "owner",
      "outputs": [
        {
          "internalType": "address",
          "name": "",
          "type": "address"
        }
      ],
      "stateMutability": "view",
      "type": "function"
    },
    {
      "inputs": [
        {
          "internalType": "bytes32",
          "name": "commitment",
          "type": "bytes32"
        },
        {
          "internalType": "enum ICommitmentRegistry.CommitmentType",
          "name": "commitmentType",
          "type": "uint8"
        },
        {
          "internalType": "address",
          "name": "user",
          "type": "address"
        }
      ],
      "name": "registerCommitment",
      "outputs": [],
      "stateMutability": "nonpayable",
      "type": "function"
    },
    {
      "inputs": [],
      "name": "renounceOwnership",
      "outputs": [],
      "stateMutability": "nonpayable",
      "type": "function"
    },
    {
      "inputs": [
        {
          "internalType": "address",
          "name": "caller",
          "type": "address"
        },
        {
          "internalType": "bool",
          "name": "authorized",
          "type": "bool"
        }
      ],
      "name": "setAuthorizedCaller",
      "outputs": [],
      "stateMutability": "nonpayable",
      "type": "function"
    },
    {
      "inputs": [
        {
          "internalType": "address",
          "name": "newOwner",
          "type": "address"
        }
      ],
      "name": "transferOwnership",
      "outputs": [],
      "stateMutability": "nonpayable",
      "type": "function"
    },
    {
      "inputs": [
        {
          "internalType": "bytes32",
          "name": "oldCommitment",
          "type": "bytes32"
        },
        {
          "internalType": "bytes32",
          "name": "newCommitment",
          "type": "bytes32"
        },
        {
          "internalType": "bytes32",
          "name": "nullifier",
          "type": "bytes32"
        }
      ],
      "name": "updateCommitment",
      "outputs": [],
      "stateMutability": "nonpayable",
      "type": "function"
    }
  ],
  "bytecode": "0x608060405234801561001057600080fd5b50338061003757604051631e4fbdf760e01b81526000600482015260240160405180910390fd5b61004081610046565b50610096565b600080546001600160a01b038381166001600160a01b0319831681178455604051919092169283917f8be0079c531659141344cd1fd0a4f28419497f9722a3daafe3b4186f6b6457e09190a35050565b610c70806100a56000396000f3fe608060405234801561001057600080fd5b50600436106101215760003560e01c80638307d15f116100ad578063dc97d5a611610071578063dc97d5a61461030f578063df1b117814610338578063e122352e14610361578063e3c0d8d514610384578063f2fde38b1461039757600080fd5b80638307d15f1461027157806386307865146102845780638da5cb5b146102a757806398457be2146102cc578063db0c75bb146102ef57600080fd5b8063454bbd29116100f4578063454bbd29146101f05780635281e5d914610205578063536fff6c14610218578063715018a61461023b5780637fa8f2d61461024357600080fd5b80631b7ed5d71461012657806322dc7b4c1461014f5780632997e86b1461018257806331091d7a146101a5575b600080fd5b610139610134366004610ab0565b6103aa565b6040516101469190610b01565b60405180910390f35b61017261015d366004610ab0565b60009081526006602052604090205460ff1690565b6040519015158152602001610146565b610172610190366004610ab0565b60066020526000908152604090205460ff1681565b6101db6101b3366004610b31565b6001600160a01b03166000908152600160209081526040808320546002909252909120549091565b60408051928352602083019190915201610146565b6102036101fe366004610b53565b6103ef565b005b610203610213366004610b8f565b610422565b610172610226366004610b31565b60076020526000908152604090205460ff1681565b61020361066f565b610263610251366004610b31565b60026020526000908152604090205481565b604051908152602001610146565b61020361027f366004610bbb565b610683565b610172610292366004610ab0565b60036020526000908152604090205460ff1681565b6000546001600160a01b03165b6040516001600160a01b039091168152602001610146565b6101396102da366004610ab0565b60056020526000908152604090205460ff1681565b6102636102fd366004610b31565b60016020526000908152604090205481565b6102b461031d366004610ab0565b6004602052600090815260409020546001600160a01b031681565b6102b4610346366004610ab0565b6000908152600460205260409020546001600160a01b031690565b61017261036f366004610ab0565b60009081526003602052604090205460ff1690565b610203610392366004610bfd565b610844565b6102036103a5366004610b31565b6109f0565b60008181526003602052604081205460ff166103d95760405163133a3e8560e31b815260040160405180910390fd5b5060009081526005602052604090205460ff1690565b6103f7610a33565b6001600160a01b03919091166000908152600760205260409020805460ff1916911515919091179055565b3360009081526007602052604090205460ff1615801561044d57506000546001600160a01b03163314155b1561046b57604051635c427cd960e01b815260040160405180910390fd5b60008381526003602052604090205460ff1661049a5760405163133a3e8560e31b815260040160405180910390fd5b60008181526006602052604090205460ff16156104ca57604051636569570160e11b815260040160405180910390fd5b816104e8576040516351bda03d60e01b815260040160405180910390fd5b60008381526004602081815260408084205460058084528286205487875260068552838720805460ff1990811660019081179092558b8952600387528589208054821690558a8952858920805482168317905596865284882080546001600160a01b0319166001600160a01b0390951694851790559190945291909420805460ff9093169384939192911690838181111561058557610585610ac9565b0217905550600081600181111561059e5761059e610ac9565b036105c3576001600160a01b03821660009081526001602052604090208490556105df565b6001600160a01b03821660009081526002602052604090208490555b6040805184815242602082015286916001600160a01b038516917f68359c9bda52899cd55b508a81e04165c41c8ad7a3c4204ff988c01f0b35ba9d910160405180910390a383826001600160a01b03167f38540c433be978fc51a28c0303b0eaeb712baecc993dde7353fa6127538b78c88342604051610660929190610c1f565b60405180910390a35050505050565b610677610a33565b6106816000610a60565b565b3360009081526007602052604090205460ff161580156106ae57506000546001600160a01b03163314155b156106cc57604051635c427cd960e01b815260040160405180910390fd5b826106ea576040516351bda03d60e01b815260040160405180910390fd5b60008381526003602052604090205460ff161561071a5760405163145718a760e01b815260040160405180910390fd5b6001600160a01b038116610741576040516351bda03d60e01b815260040160405180910390fd5b60008381526003602090815260408083208054600160ff1991821681179092556004845282852080546001600160a01b0319166001600160a01b03881617905560059093529220805485939192169083818111156107a1576107a1610ac9565b021790555060008260018111156107ba576107ba610ac9565b036107df576001600160a01b03811660009081526001602052604090208390556107fb565b6001600160a01b03811660009081526002602052604090208390555b82816001600160a01b03167f38540c433be978fc51a28c0303b0eaeb712baecc993dde7353fa6127538b78c88442604051610837929190610c1f565b60405180910390a3505050565b3360009081526007602052604090205460ff1615801561086f57506000546001600160a01b03163314155b1561088d57604051635c427cd960e01b815260040160405180910390fd5b60008281526003602052604090205460ff166108bc5760405163133a3e8560e31b815260040160405180910390fd5b60008181526006602052604090205460ff16156108ec57604051636569570160e11b815260040160405180910390fd5b60008281526004602081815260408084208054600584528286205487875260068552838720805460ff199081166001179091558988526003865293872080549094169093559390925281546001600160a01b0319169091556001600160a01b039091169160ff9091169081600181111561096857610968610ac9565b0361098b576001600160a01b0382166000908152600160205260408120556109a5565b6001600160a01b0382166000908152600260205260408120555b6040805184815242602082015285916001600160a01b038516917f68359c9bda52899cd55b508a81e04165c41c8ad7a3c4204ff988c01f0b35ba9d910160405180910390a350505050565b6109f8610a33565b6001600160a01b038116610a2757604051631e4fbdf760e01b8152600060048201526024015b60405180910390fd5b610a3081610a60565b50565b6000546001600160a01b031633146106815760405163118cdaa760e01b8152336004820152602401610a1e565b600080546001600160a01b038381166001600160a01b0319831681178455604051919092169283917f8be0079c531659141344cd1fd0a4f28419497f9722a3daafe3b4186f6b6457e09190a35050565b600060208284031215610ac257600080fd5b5035919050565b634e487b7160e01b600052602160045260246000fd5b60028110610afd57634e487b7160e01b600052602160045260246000fd5b9052565b60208101610b0f8284610adf565b92915050565b80356001600160a01b0381168114610b2c57600080fd5b919050565b600060208284031215610b4357600080fd5b610b4c82610b15565b9392505050565b60008060408385031215610b6657600080fd5b610b6f83610b15565b915060208301358015158114610b8457600080fd5b809150509250929050565b600080600060608486031215610ba457600080fd5b505081359360208301359350604090920135919050565b600080600060608486031215610bd057600080fd5b83359250602084013560028110610be657600080fd5b9150610bf460408501610b15565b90509250925092565b60008060408385031215610c1057600080fd5b50508035926020909101359150565b60408101610c2d8285610adf565b826020830152939250505056fea264697066735822122035c603efb8b8cc31b57da78664ab7c4561985987bc263db27109bc4d8fb6638b64736f6c63430008140033",
  "linkReferences": {},
  "deployedLinkReferences": {}
}