{"src/ZKVerifier.sol":{"ZKVerifier":{"abi":[{"inputs":[],"stateMutability":"nonpayable","type":"constructor"},{"inputs":[],"name":"InvalidProof","type":"error"},{"inputs":[],"name":"InvalidPublicInputs","type":"error"},{"inputs":[],"name":"InvalidVKLength","type":"error"},{"inputs":[{"internalType":"address","name":"owner","type":"address"}],"name":"OwnableInvalidOwner","type":"error"},{"inputs":[{"internalType":"address","name":"account","type":"address"}],"name":"OwnableUnauthorizedAccount","type":"error"},{"inputs":[],"name":"PairingFailed","type":"error"},{"inputs":[],"name":"PointNotOnCurve","type":"error"},{"inputs":[],"name":"VKNotSet","type":"error"},{"anonymous":false,"inputs":[{"indexed":true,"internalType":"address","name":"previousOwner","type":"address"},{"indexed":true,"internalType":"address","name":"newOwner","type":"address"}],"name":"OwnershipTransferred","type":"event"},{"anonymous":false,"inputs":[{"indexed":true,"internalType":"enum IZKVerifier.ProofType","name":"proofType","type":"uint8"},{"indexed":true,"internalType":"address","name":"verifier","type":"address"},{"indexed":false,"internalType":"bool","name":"success","type":"bool"}],"name":"ProofVerified","type":"event"},{"anonymous":false,"inputs":[{"indexed":true,"internalType":"enum IZKVerifier.ProofType","name":"proofType","type":"uint8"},{"indexed":false,"internalType":"bytes32","name":"vkHash","type":"bytes32"}],"name":"VerificationKeySet","type":"event"},{"inputs":[{"internalType":"enum IZKVerifier.ProofType","name":"proofType","type":"uint8"}],"name":"getVerificationKeyHash","outputs":[{"internalType":"bytes32","name":"","type":"bytes32"}],"stateMutability":"view","type":"function"},{"inputs":[{"internalType":"enum IZKVerifier.ProofType","name":"","type":"uint8"}],"name":"isVKSet","outputs":[{"internalType":"bool","name":"","type":"bool"}],"stateMutability":"view","type":"function"},{"inputs":[],"name":"owner","outputs":[{"internalType":"address","name":"","type":"address"}],"stateMutability":"view","type":"function"},{"inputs":[],"name":"renounceOwnership","outputs":[],"stateMutability":"nonpayable","type":"function"},{"inputs":[{"internalType":"enum IZKVerifier.ProofType","name":"proofType","type":"uint8"},{"internalType":"uint256[]","name":"vk","type":"uint256[]"}],"name":"setVerificationKey","outputs":[],"stateMutability":"nonpayable","type":"function"},{"inputs":[{"internalType":"address","name":"newOwner","type":"address"}],"name":"transferOwnership","outputs":[],"stateMutability":"nonpayable","type":"function"},{"inputs":[{"internalType":"enum IZKVerifier.ProofType","name":"","type":"uint8"},{"internalType":"uint256","name":"","type":"uint256"}],"name":"verificationKeys","outputs":[{"internalType":"uint256","name":"","type":"uint256"}],"stateMutability":"view","type":"function"},{"inputs":[{"internalType":"enum IZKVerifier.ProofType","name":"proofType","type":"uint8"},{"components":[{"internalType":"uint256[2]","name":"a","type":"uint256[2]"},{"internalType":"uint256[2][2]","name":"b","type":"uint256[2][2]"},{"internalType":"uint256[2]","name":"c","type":"uint256[2]"}],"internalType":"struct IZKVerifier.Proof","name":"proof","type":"tuple"},{"internalType":"uint256[]","name":"publicInputs","type":"uint256[]"}],"name":"verify","outputs":[{"internalType":"bool","name":"","type":"bool"}],"stateMutability":"view","type":"function"},{"inputs":[{"internalType":"enum IZKVerifier.ProofType","name":"","type":"uint8"}],"name":"vkHashes","outputs":[{"internalType":"bytes32","name":"","type":"bytes32"}],"stateMutability":"view","type":"function"}],"evm":{"bytecode":{"linkReferences":{},"object":"608060405234801561001057600080fd5b50338061003757604051631e4fbdf760e01b81526000600482015260240160405180910390fd5b61004081610046565b50610096565b600080546001600160a01b038381166001600160a01b0319831681178455604051919092169283917f8be0079c531659141344cd1fd0a4f28419497f9722a3daafe3b4186f6b6457e09190a35050565b610f3d806100a56000396000f3fe608060405234801561001057600080fd5b50600436106100935760003560e01c80638da5cb5b116100665780638da5cb5b146100fb5780639d1ef9c214610116578063a0365bf414610139578063b69888961461015c578063f2fde38b1461016f57600080fd5b806368d76f001461009857806370f6fac9146100ad578063715018a6146100d3578063784224f8146100db575b600080fd5b6100ab6100a6366004610cca565b610182565b005b6100c06100bb366004610d1d565b610371565b6040519081526020015b60405180910390f35b6100ab6103a2565b6100c06100e9366004610d47565b60026020526000908152604090205481565b6000546040516001600160a01b0390911681526020016100ca565b610129610124366004610d69565b6103b6565b60405190151581526020016100ca565b610129610147366004610d47565b60036020526000908152604090205460ff1681565b6100c061016a366004610d47565b610534565b6100ab61017d366004610dd9565b610573565b61018a6105b6565b60128110156101ac57604051635139efdd60e11b815260040160405180910390fd5b600060026101bb600e84610e18565b6101c59190610e47565b90506101d2816002610e5b565b6101dd90600e610e72565b82146101fc57604051635139efdd60e11b815260040160405180910390fd5b82826001600087600281111561021457610214610e85565b600281111561022557610225610e85565b81526020019081526020016000209190610240929190610b73565b508282604051602001610254929190610e9b565b604051602081830303815290604052805190602001206002600086600281111561028057610280610e85565b600281111561029157610291610e85565b8152602001908152602001600020819055506001600360008660028111156102bb576102bb610e85565b60028111156102cc576102cc610e85565b81526020810191909152604001600020805460ff19169115159190911790558360028111156102fd576102fd610e85565b7fedad208b19e44cea271d086c735075abe60a479b2bd30f0b3f5964acfdb79d3c6002600087600281111561033457610334610e85565b600281111561034557610345610e85565b81526020019081526020016000205460405161036391815260200190565b60405180910390a250505050565b6001602052816000526040600020818154811061038d57600080fd5b90600052602060002001600091509150505481565b6103aa6105b6565b6103b460006105e3565b565b6000600360008660028111156103ce576103ce610e85565b60028111156103df576103df610e85565b815260208101919091526040016000205460ff1661041057604051633878dc5960e21b815260040160405180910390fd5b60006001600087600281111561042857610428610e85565b600281111561043957610439610e85565b8152602001908152602001600020905060006002600e838054905061045e9190610e18565b6104689190610e47565b9050610475600182610e18565b8414610494576040516319dcebfb60e21b815260040160405180910390fd5b60005b84811015610509577f30644e72e131a029b85045b68181585d2833e84879b9709143e1f593f00000018686838181106104d2576104d2610ec4565b90506020020135106104f7576040516319dcebfb60e21b815260040160405180910390fd5b8061050181610eda565b915050610497565b50600061051883878785610633565b90506000610527888584610759565b9998505050505050505050565b60006002600083600281111561054c5761054c610e85565b600281111561055d5761055d610e85565b8152602001908152602001600020549050919050565b61057b6105b6565b6001600160a01b0381166105aa57604051631e4fbdf760e01b8152600060048201526024015b60405180910390fd5b6105b3816105e3565b50565b6000546001600160a01b031633146103b45760405163118cdaa760e01b81523360048201526024016105a1565b600080546001600160a01b038381166001600160a01b0319831681178455604051919092169283917f8be0079c531659141344cd1fd0a4f28419497f9722a3daafe3b4186f6b6457e09190a35050565b61063b610bbe565b610643610bbe565b85600e8154811061065657610656610ec4565b600091825260209091200154815285548690600f90811061067957610679610ec4565b6000918252602080832090910154908301525b8481101561074f5761069c610bbe565b876106a8836002610e5b565b6106b3906010610e72565b815481106106c3576106c3610ec4565b6000918252602090912001548152876106dd836002610e5b565b6106e8906011610e72565b815481106106f8576106f8610ec4565b60009182526020808320909101549083015261072c8289898681811061072057610720610ec4565b90506020020135610a79565b90506107388482610af4565b93505050808061074790610eda565b91505061068c565b5095945050505050565b6000610763610bdc565b843581526107957f30644e72e131a029b85045b68181585d97816a916871ca8d3c208c16d87cfd476020870135610ef3565b6107bf907f30644e72e131a029b85045b68181585d97816a916871ca8d3c208c16d87cfd47610e18565b602082015260408581013590820152606080860135908201526080808601359082015260a08086013590820152835484906000906107ff576107ff610ec4565b60009182526020909120015460c082015283548490600190811061082557610825610ec4565b60009182526020909120015460e082015283548490600290811061084b5761084b610ec4565b60009182526020909120015461010082015283548490600390811061087257610872610ec4565b60009182526020909120015461012082015283548490600490811061089957610899610ec4565b6000918252602090912001546101408201528354849060059081106108c0576108c0610ec4565b6000918252602091829020015461016083015283516101808301528301516101a08201528354849060069081106108f9576108f9610ec4565b6000918252602090912001546101c082015283548490600790811061092057610920610ec4565b6000918252602090912001546101e082015283548490600890811061094757610947610ec4565b60009182526020909120015461020082015283548490600990811061096e5761096e610ec4565b60009182526020909120015461022082015260c085013561024082015260e085013561026082015283548490600a9081106109ab576109ab610ec4565b60009182526020909120015461028082015283548490600b9081106109d2576109d2610ec4565b6000918252602090912001546102a082015283548490600c9081106109f9576109f9610ec4565b6000918252602090912001546102c082015283548490600d908110610a2057610a20610ec4565b6000918252602090912001546102e0820152610a3a610bfb565b60006020826103008560086107d05a03fa905080610a6b57604051634df45e2f60e01b815260040160405180910390fd5b505160011495945050505050565b610a81610bbe565b610a89610c19565b835181526020808501519082015260408082018490526000908360608460076107d05a03fa905080610aec5760405162461bcd60e51b815260206004820152600c60248201526b1958d35d5b0819985a5b195960a21b60448201526064016105a1565b505092915050565b610afc610bbe565b610b04610c37565b835181526020808501518282015283516040808401919091529084015160608301526000908360808460066107d05a03fa905080610aec5760405162461bcd60e51b815260206004820152600c60248201526b1958d059190819985a5b195960a21b60448201526064016105a1565b828054828255906000526020600020908101928215610bae579160200282015b82811115610bae578235825591602001919060010190610b93565b50610bba929150610c55565b5090565b60405180604001604052806002906020820280368337509192915050565b6040518061030001604052806018906020820280368337509192915050565b60405180602001604052806001906020820280368337509192915050565b60405180606001604052806003906020820280368337509192915050565b60405180608001604052806004906020820280368337509192915050565b5b80821115610bba5760008155600101610c56565b803560038110610c7957600080fd5b919050565b60008083601f840112610c9057600080fd5b50813567ffffffffffffffff811115610ca857600080fd5b6020830191508360208260051b8501011115610cc357600080fd5b9250929050565b600080600060408486031215610cdf57600080fd5b610ce884610c6a565b9250602084013567ffffffffffffffff811115610d0457600080fd5b610d1086828701610c7e565b9497909650939450505050565b60008060408385031215610d3057600080fd5b610d3983610c6a565b946020939093013593505050565b600060208284031215610d5957600080fd5b610d6282610c6a565b9392505050565b600080600080848603610140811215610d8157600080fd5b610d8a86610c6a565b9450610100601f1982011215610d9f57600080fd5b5060208501925061012085013567ffffffffffffffff811115610dc157600080fd5b610dcd87828801610c7e565b95989497509550505050565b600060208284031215610deb57600080fd5b81356001600160a01b0381168114610d6257600080fd5b634e487b7160e01b600052601160045260246000fd5b81810381811115610e2b57610e2b610e02565b92915050565b634e487b7160e01b600052601260045260246000fd5b600082610e5657610e56610e31565b500490565b8082028115828204841417610e2b57610e2b610e02565b80820180821115610e2b57610e2b610e02565b634e487b7160e01b600052602160045260246000fd5b60006001600160fb1b03831115610eb157600080fd5b8260051b80858437919091019392505050565b634e487b7160e01b600052603260045260246000fd5b600060018201610eec57610eec610e02565b5060010190565b600082610f0257610f02610e31565b50069056fea26469706673582212207d0b13587a8c1b21e768ed8d7a1fee55e6427a81faafb5dfee2d158074896b1664736f6c63430008140033","opcodes":"PUSH1 0x80 PUSH1 0x40 MSTORE CALLVALUE DUP1 ISZERO PUSH2 0x10 JUMPI PUSH1 0x0 DUP1 REVERT JUMPDEST POP CALLER DUP1 PUSH2 0x37 JUMPI PUSH1 0x40 MLOAD PUSH4 0x1E4FBDF7 PUSH1 0xE0 SHL DUP2 MSTORE PUSH1 0x0 PUSH1 0x4 DUP3 ADD MSTORE PUSH1 0x24 ADD PUSH1 0x40 MLOAD DUP1 SWAP2 SUB SWAP1 REVERT JUMPDEST PUSH2 0x40 DUP2 PUSH2 0x46 JUMP JUMPDEST POP PUSH2 0x96 JUMP JUMPDEST PUSH1 0x0 DUP1 SLOAD PUSH1 0x1 PUSH1 0x1 PUSH1 0xA0 SHL SUB DUP4 DUP2 AND PUSH1 0x1 PUSH1 0x1 PUSH1 0xA0 SHL SUB NOT DUP4 AND DUP2 OR DUP5 SSTORE PUSH1 0x40 MLOAD SWAP2 SWAP1 SWAP3 AND SWAP3 DUP4 SWAP2 PUSH32 0x8BE0079C531659141344CD1FD0A4F28419497F9722A3DAAFE3B4186F6B6457E0 SWAP2 SWAP1 LOG3 POP POP JUMP JUMPDEST PUSH2 0xF3D DUP1 PUSH2 0xA5 PUSH1 0x0 CODECOPY PUSH1 0x0 RETURN INVALID PUSH1 0x80 PUSH1 0x40 MSTORE CALLVALUE DUP1 ISZERO PUSH2 0x10 JUMPI PUSH1 0x0 DUP1 REVERT JUMPDEST POP PUSH1 0x4 CALLDATASIZE LT PUSH2 0x93 JUMPI PUSH1 0x0 CALLDATALOAD PUSH1 0xE0 SHR DUP1 PUSH4 0x8DA5CB5B GT PUSH2 0x66 JUMPI DUP1 PUSH4 0x8DA5CB5B EQ PUSH2 0xFB JUMPI DUP1 PUSH4 0x9D1EF9C2 EQ PUSH2 0x116 JUMPI DUP1 PUSH4 0xA0365BF4 EQ PUSH2 0x139 JUMPI DUP1 PUSH4 0xB6988896 EQ PUSH2 0x15C JUMPI DUP1 PUSH4 0xF2FDE38B EQ PUSH2 0x16F JUMPI PUSH1 0x0 DUP1 REVERT JUMPDEST DUP1 PUSH4 0x68D76F00 EQ PUSH2 0x98 JUMPI DUP1 PUSH4 0x70F6FAC9 EQ PUSH2 0xAD JUMPI DUP1 PUSH4 0x715018A6 EQ PUSH2 0xD3 JUMPI DUP1 PUSH4 0x784224F8 EQ PUSH2 0xDB JUMPI JUMPDEST PUSH1 0x0 DUP1 REVERT JUMPDEST PUSH2 0xAB PUSH2 0xA6 CALLDATASIZE PUSH1 0x4 PUSH2 0xCCA JUMP JUMPDEST PUSH2 0x182 JUMP JUMPDEST STOP JUMPDEST PUSH2 0xC0 PUSH2 0xBB CALLDATASIZE PUSH1 0x4 PUSH2 0xD1D JUMP JUMPDEST PUSH2 0x371 JUMP JUMPDEST PUSH1 0x40 MLOAD SWAP1 DUP2 MSTORE PUSH1 0x20 ADD JUMPDEST PUSH1 0x40 MLOAD DUP1 SWAP2 SUB SWAP1 RETURN JUMPDEST PUSH2 0xAB PUSH2 0x3A2 JUMP JUMPDEST PUSH2 0xC0 PUSH2 0xE9 CALLDATASIZE PUSH1 0x4 PUSH2 0xD47 JUMP JUMPDEST PUSH1 0x2 PUSH1 0x20 MSTORE PUSH1 0x0 SWAP1 DUP2 MSTORE PUSH1 0x40 SWAP1 KECCAK256 SLOAD DUP2 JUMP JUMPDEST PUSH1 0x0 SLOAD PUSH1 0x40 MLOAD PUSH1 0x1 PUSH1 0x1 PUSH1 0xA0 SHL SUB SWAP1 SWAP2 AND DUP2 MSTORE PUSH1 0x20 ADD PUSH2 0xCA JUMP JUMPDEST PUSH2 0x129 PUSH2 0x124 CALLDATASIZE PUSH1 0x4 PUSH2 0xD69 JUMP JUMPDEST PUSH2 0x3B6 JUMP JUMPDEST PUSH1 0x40 MLOAD SWAP1 ISZERO ISZERO DUP2 MSTORE PUSH1 0x20 ADD PUSH2 0xCA JUMP JUMPDEST PUSH2 0x129 PUSH2 0x147 CALLDATASIZE PUSH1 0x4 PUSH2 0xD47 JUMP JUMPDEST PUSH1 0x3 PUSH1 0x20 MSTORE PUSH1 0x0 SWAP1 DUP2 MSTORE PUSH1 0x40 SWAP1 KECCAK256 SLOAD PUSH1 0xFF AND DUP2 JUMP JUMPDEST PUSH2 0xC0 PUSH2 0x16A CALLDATASIZE PUSH1 0x4 PUSH2 0xD47 JUMP JUMPDEST PUSH2 0x534 JUMP JUMPDEST PUSH2 0xAB PUSH2 0x17D CALLDATASIZE PUSH1 0x4 PUSH2 0xDD9 JUMP JUMPDEST PUSH2 0x573 JUMP JUMPDEST PUSH2 0x18A PUSH2 0x5B6 JUMP JUMPDEST PUSH1 0x12 DUP2 LT ISZERO PUSH2 0x1AC JUMPI PUSH1 0x40 MLOAD PUSH4 0x5139EFDD PUSH1 0xE1 SHL DUP2 MSTORE PUSH1 0x4 ADD PUSH1 0x40 MLOAD DUP1 SWAP2 SUB SWAP1 REVERT JUMPDEST PUSH1 0x0 PUSH1 0x2 PUSH2 0x1BB PUSH1 0xE DUP5 PUSH2 0xE18 JUMP JUMPDEST PUSH2 0x1C5 SWAP2 SWAP1 PUSH2 0xE47 JUMP JUMPDEST SWAP1 POP PUSH2 0x1D2 DUP2 PUSH1 0x2 PUSH2 0xE5B JUMP JUMPDEST PUSH2 0x1DD SWAP1 PUSH1 0xE PUSH2 0xE72 JUMP JUMPDEST DUP3 EQ PUSH2 0x1FC JUMPI PUSH1 0x40 MLOAD PUSH4 0x5139EFDD PUSH1 0xE1 SHL DUP2 MSTORE PUSH1 0x4 ADD PUSH1 0x40 MLOAD DUP1 SWAP2 SUB SWAP1 REVERT JUMPDEST DUP3 DUP3 PUSH1 0x1 PUSH1 0x0 DUP8 PUSH1 0x2 DUP2 GT ISZERO PUSH2 0x214 JUMPI PUSH2 0x214 PUSH2 0xE85 JUMP JUMPDEST PUSH1 0x2 DUP2 GT ISZERO PUSH2 0x225 JUMPI PUSH2 0x225 PUSH2 0xE85 JUMP JUMPDEST DUP2 MSTORE PUSH1 0x20 ADD SWAP1 DUP2 MSTORE PUSH1 0x20 ADD PUSH1 0x0 KECCAK256 SWAP2 SWAP1 PUSH2 0x240 SWAP3 SWAP2 SWAP1 PUSH2 0xB73 JUMP JUMPDEST POP DUP3 DUP3 PUSH1 0x40 MLOAD PUSH1 0x20 ADD PUSH2 0x254 SWAP3 SWAP2 SWAP1 PUSH2 0xE9B JUMP JUMPDEST PUSH1 0x40 MLOAD PUSH1 0x20 DUP2 DUP4 SUB SUB DUP2 MSTORE SWAP1 PUSH1 0x40 MSTORE DUP1 MLOAD SWAP1 PUSH1 0x20 ADD KECCAK256 PUSH1 0x2 PUSH1 0x0 DUP7 PUSH1 0x2 DUP2 GT ISZERO PUSH2 0x280 JUMPI PUSH2 0x280 PUSH2 0xE85 JUMP JUMPDEST PUSH1 0x2 DUP2 GT ISZERO PUSH2 0x291 JUMPI PUSH2 0x291 PUSH2 0xE85 JUMP JUMPDEST DUP2 MSTORE PUSH1 0x20 ADD SWAP1 DUP2 MSTORE PUSH1 0x20 ADD PUSH1 0x0 KECCAK256 DUP2 SWAP1 SSTORE POP PUSH1 0x1 PUSH1 0x3 PUSH1 0x0 DUP7 PUSH1 0x2 DUP2 GT ISZERO PUSH2 0x2BB JUMPI PUSH2 0x2BB PUSH2 0xE85 JUMP JUMPDEST PUSH1 0x2 DUP2 GT ISZERO PUSH2 0x2CC JUMPI PUSH2 0x2CC PUSH2 0xE85 JUMP JUMPDEST DUP2 MSTORE PUSH1 0x20 DUP2 ADD SWAP2 SWAP1 SWAP2 MSTORE PUSH1 0x40 ADD PUSH1 0x0 KECCAK256 DUP1 SLOAD PUSH1 0xFF NOT AND SWAP2 ISZERO ISZERO SWAP2 SWAP1 SWAP2 OR SWAP1 SSTORE DUP4 PUSH1 0x2 DUP2 GT ISZERO PUSH2 0x2FD JUMPI PUSH2 0x2FD PUSH2 0xE85 JUMP JUMPDEST PUSH32 0xEDAD208B19E44CEA271D086C735075ABE60A479B2BD30F0B3F5964ACFDB79D3C PUSH1 0x2 PUSH1 0x0 DUP8 PUSH1 0x2 DUP2 GT ISZERO PUSH2 0x334 JUMPI PUSH2 0x334 PUSH2 0xE85 JUMP JUMPDEST PUSH1 0x2 DUP2 GT ISZERO PUSH2 0x345 JUMPI PUSH2 0x345 PUSH2 0xE85 JUMP JUMPDEST DUP2 MSTORE PUSH1 0x20 ADD SWAP1 DUP2 MSTORE PUSH1 0x20 ADD PUSH1 0x0 KECCAK256 SLOAD PUSH1 0x40 MLOAD PUSH2 0x363 SWAP2 DUP2 MSTORE PUSH1 0x20 ADD SWAP1 JUMP JUMPDEST PUSH1 0x40 MLOAD DUP1 SWAP2 SUB SWAP1 LOG2 POP POP POP POP JUMP JUMPDEST PUSH1 0x1 PUSH1 0x20 MSTORE DUP2 PUSH1 0x0 MSTORE PUSH1 0x40 PUSH1 0x0 KECCAK256 DUP2 DUP2 SLOAD DUP2 LT PUSH2 0x38D JUMPI PUSH1 0x0 DUP1 REVERT JUMPDEST SWAP1 PUSH1 0x0 MSTORE PUSH1 0x20 PUSH1 0x0 KECCAK256 ADD PUSH1 0x0 SWAP2 POP SWAP2 POP POP SLOAD DUP2 JUMP JUMPDEST PUSH2 0x3AA PUSH2 0x5B6 JUMP JUMPDEST PUSH2 0x3B4 PUSH1 0x0 PUSH2 0x5E3 JUMP JUMPDEST JUMP JUMPDEST PUSH1 0x0 PUSH1 0x3 PUSH1 0x0 DUP7 PUSH1 0x2 DUP2 GT ISZERO PUSH2 0x3CE JUMPI PUSH2 0x3CE PUSH2 0xE85 JUMP JUMPDEST PUSH1 0x2 DUP2 GT ISZERO PUSH2 0x3DF JUMPI PUSH2 0x3DF PUSH2 0xE85 JUMP JUMPDEST DUP2 MSTORE PUSH1 0x20 DUP2 ADD SWAP2 SWAP1 SWAP2 MSTORE PUSH1 0x40 ADD PUSH1 0x0 KECCAK256 SLOAD PUSH1 0xFF AND PUSH2 0x410 JUMPI PUSH1 0x40 MLOAD PUSH4 0x3878DC59 PUSH1 0xE2 SHL DUP2 MSTORE PUSH1 0x4 ADD PUSH1 0x40 MLOAD DUP1 SWAP2 SUB SWAP1 REVERT JUMPDEST PUSH1 0x0 PUSH1 0x1 PUSH1 0x0 DUP8 PUSH1 0x2 DUP2 GT ISZERO PUSH2 0x428 JUMPI PUSH2 0x428 PUSH2 0xE85 JUMP JUMPDEST PUSH1 0x2 DUP2 GT ISZERO PUSH2 0x439 JUMPI PUSH2 0x439 PUSH2 0xE85 JUMP JUMPDEST DUP2 MSTORE PUSH1 0x20 ADD SWAP1 DUP2 MSTORE PUSH1 0x20 ADD PUSH1 0x0 KECCAK256 SWAP1 POP PUSH1 0x0 PUSH1 0x2 PUSH1 0xE DUP4 DUP1 SLOAD SWAP1 POP PUSH2 0x45E SWAP2 SWAP1 PUSH2 0xE18 JUMP JUMPDEST PUSH2 0x468 SWAP2 SWAP1 PUSH2 0xE47 JUMP JUMPDEST SWAP1 POP PUSH2 0x475 PUSH1 0x1 DUP3 PUSH2 0xE18 JUMP JUMPDEST DUP5 EQ PUSH2 0x494 JUMPI PUSH1 0x40 MLOAD PUSH4 0x19DCEBFB PUSH1 0xE2 SHL DUP2 MSTORE PUSH1 0x4 ADD PUSH1 0x40 MLOAD DUP1 SWAP2 SUB SWAP1 REVERT JUMPDEST PUSH1 0x0 JUMPDEST DUP5 DUP2 LT ISZERO PUSH2 0x509 JUMPI PUSH32 0x30644E72E131A029B85045B68181585D2833E84879B9709143E1F593F0000001 DUP7 DUP7 DUP4 DUP2 DUP2 LT PUSH2 0x4D2 JUMPI PUSH2 0x4D2 PUSH2 0xEC4 JUMP JUMPDEST SWAP1 POP PUSH1 0x20 MUL ADD CALLDATALOAD LT PUSH2 0x4F7 JUMPI PUSH1 0x40 MLOAD PUSH4 0x19DCEBFB PUSH1 0xE2 SHL DUP2 MSTORE PUSH1 0x4 ADD PUSH1 0x40 MLOAD DUP1 SWAP2 SUB SWAP1 REVERT JUMPDEST DUP1 PUSH2 0x501 DUP2 PUSH2 0xEDA JUMP JUMPDEST SWAP2 POP POP PUSH2 0x497 JUMP JUMPDEST POP PUSH1 0x0 PUSH2 0x518 DUP4 DUP8 DUP8 DUP6 PUSH2 0x633 JUMP JUMPDEST SWAP1 POP PUSH1 0x0 PUSH2 0x527 DUP9 DUP6 DUP5 PUSH2 0x759 JUMP JUMPDEST SWAP10 SWAP9 POP POP POP POP POP POP POP POP POP JUMP JUMPDEST PUSH1 0x0 PUSH1 0x2 PUSH1 0x0 DUP4 PUSH1 0x2 DUP2 GT ISZERO PUSH2 0x54C JUMPI PUSH2 0x54C PUSH2 0xE85 JUMP JUMPDEST PUSH1 0x2 DUP2 GT ISZERO PUSH2 0x55D JUMPI PUSH2 0x55D PUSH2 0xE85 JUMP JUMPDEST DUP2 MSTORE PUSH1 0x20 ADD SWAP1 DUP2 MSTORE PUSH1 0x20 ADD PUSH1 0x0 KECCAK256 SLOAD SWAP1 POP SWAP2 SWAP1 POP JUMP JUMPDEST PUSH2 0x57B PUSH2 0x5B6 JUMP JUMPDEST PUSH1 0x1 PUSH1 0x1 PUSH1 0xA0 SHL SUB DUP2 AND PUSH2 0x5AA JUMPI PUSH1 0x40 MLOAD PUSH4 0x1E4FBDF7 PUSH1 0xE0 SHL DUP2 MSTORE PUSH1 0x0 PUSH1 0x4 DUP3 ADD MSTORE PUSH1 0x24 ADD JUMPDEST PUSH1 0x40 MLOAD DUP1 SWAP2 SUB SWAP1 REVERT JUMPDEST PUSH2 0x5B3 DUP2 PUSH2 0x5E3 JUMP JUMPDEST POP JUMP JUMPDEST PUSH1 0x0 SLOAD PUSH1 0x1 PUSH1 0x1 PUSH1 0xA0 SHL SUB AND CALLER EQ PUSH2 0x3B4 JUMPI PUSH1 0x40 MLOAD PUSH4 0x118CDAA7 PUSH1 0xE0 SHL DUP2 MSTORE CALLER PUSH1 0x4 DUP3 ADD MSTORE PUSH1 0x24 ADD PUSH2 0x5A1 JUMP JUMPDEST PUSH1 0x0 DUP1 SLOAD PUSH1 0x1 PUSH1 0x1 PUSH1 0xA0 SHL SUB DUP4 DUP2 AND PUSH1 0x1 PUSH1 0x1 PUSH1 0xA0 SHL SUB NOT DUP4 AND DUP2 OR DUP5 SSTORE PUSH1 0x40 MLOAD SWAP2 SWAP1 SWAP3 AND SWAP3 DUP4 SWAP2 PUSH32 0x8BE0079C531659141344CD1FD0A4F28419497F9722A3DAAFE3B4186F6B6457E0 SWAP2 SWAP1 LOG3 POP POP JUMP JUMPDEST PUSH2 0x63B PUSH2 0xBBE JUMP JUMPDEST PUSH2 0x643 PUSH2 0xBBE JUMP JUMPDEST DUP6 PUSH1 0xE DUP2 SLOAD DUP2 LT PUSH2 0x656 JUMPI PUSH2 0x656 PUSH2 0xEC4 JUMP JUMPDEST PUSH1 0x0 SWAP2 DUP3 MSTORE PUSH1 0x20 SWAP1 SWAP2 KECCAK256 ADD SLOAD DUP2 MSTORE DUP6 SLOAD DUP7 SWAP1 PUSH1 0xF SWAP1 DUP2 LT PUSH2 0x679 JUMPI PUSH2 0x679 PUSH2 0xEC4 JUMP JUMPDEST PUSH1 0x0 SWAP2 DUP3 MSTORE PUSH1 0x20 DUP1 DUP4 KECCAK256 SWAP1 SWAP2 ADD SLOAD SWAP1 DUP4 ADD MSTORE JUMPDEST DUP5 DUP2 LT ISZERO PUSH2 0x74F JUMPI PUSH2 0x69C PUSH2 0xBBE JUMP JUMPDEST DUP8 PUSH2 0x6A8 DUP4 PUSH1 0x2 PUSH2 0xE5B JUMP JUMPDEST PUSH2 0x6B3 SWAP1 PUSH1 0x10 PUSH2 0xE72 JUMP JUMPDEST DUP2 SLOAD DUP2 LT PUSH2 0x6C3 JUMPI PUSH2 0x6C3 PUSH2 0xEC4 JUMP JUMPDEST PUSH1 0x0 SWAP2 DUP3 MSTORE PUSH1 0x20 SWAP1 SWAP2 KECCAK256 ADD SLOAD DUP2 MSTORE DUP8 PUSH2 0x6DD DUP4 PUSH1 0x2 PUSH2 0xE5B JUMP JUMPDEST PUSH2 0x6E8 SWAP1 PUSH1 0x11 PUSH2 0xE72 JUMP JUMPDEST DUP2 SLOAD DUP2 LT PUSH2 0x6F8 JUMPI PUSH2 0x6F8 PUSH2 0xEC4 JUMP JUMPDEST PUSH1 0x0 SWAP2 DUP3 MSTORE PUSH1 0x20 DUP1 DUP4 KECCAK256 SWAP1 SWAP2 ADD SLOAD SWAP1 DUP4 ADD MSTORE PUSH2 0x72C DUP3 DUP10 DUP10 DUP7 DUP2 DUP2 LT PUSH2 0x720 JUMPI PUSH2 0x720 PUSH2 0xEC4 JUMP JUMPDEST SWAP1 POP PUSH1 0x20 MUL ADD CALLDATALOAD PUSH2 0xA79 JUMP JUMPDEST SWAP1 POP PUSH2 0x738 DUP5 DUP3 PUSH2 0xAF4 JUMP JUMPDEST SWAP4 POP POP POP DUP1 DUP1 PUSH2 0x747 SWAP1 PUSH2 0xEDA JUMP JUMPDEST SWAP2 POP POP PUSH2 0x68C JUMP JUMPDEST POP SWAP6 SWAP5 POP POP POP POP POP JUMP JUMPDEST PUSH1 0x0 PUSH2 0x763 PUSH2 0xBDC JUMP JUMPDEST DUP5 CALLDATALOAD DUP2 MSTORE PUSH2 0x795 PUSH32 0x30644E72E131A029B85045B68181585D97816A916871CA8D3C208C16D87CFD47 PUSH1 0x20 DUP8 ADD CALLDATALOAD PUSH2 0xEF3 JUMP JUMPDEST PUSH2 0x7BF SWAP1 PUSH32 0x30644E72E131A029B85045B68181585D97816A916871CA8D3C208C16D87CFD47 PUSH2 0xE18 JUMP JUMPDEST PUSH1 0x20 DUP3 ADD MSTORE PUSH1 0x40 DUP6 DUP2 ADD CALLDATALOAD SWAP1 DUP3 ADD MSTORE PUSH1 0x60 DUP1 DUP7 ADD CALLDATALOAD SWAP1 DUP3 ADD MSTORE PUSH1 0x80 DUP1 DUP7 ADD CALLDATALOAD SWAP1 DUP3 ADD MSTORE PUSH1 0xA0 DUP1 DUP7 ADD CALLDATALOAD SWAP1 DUP3 ADD MSTORE DUP4 SLOAD DUP5 SWAP1 PUSH1 0x0 SWAP1 PUSH2 0x7FF JUMPI PUSH2 0x7FF PUSH2 0xEC4 JUMP JUMPDEST PUSH1 0x0 SWAP2 DUP3 MSTORE PUSH1 0x20 SWAP1 SWAP2 KECCAK256 ADD SLOAD PUSH1 0xC0 DUP3 ADD MSTORE DUP4 SLOAD DUP5 SWAP1 PUSH1 0x1 SWAP1 DUP2 LT PUSH2 0x825 JUMPI PUSH2 0x825 PUSH2 0xEC4 JUMP JUMPDEST PUSH1 0x0 SWAP2 DUP3 MSTORE PUSH1 0x20 SWAP1 SWAP2 KECCAK256 ADD SLOAD PUSH1 0xE0 DUP3 ADD MSTORE DUP4 SLOAD DUP5 SWAP1 PUSH1 0x2 SWAP1 DUP2 LT PUSH2 0x84B JUMPI PUSH2 0x84B PUSH2 0xEC4 JUMP JUMPDEST PUSH1 0x0 SWAP2 DUP3 MSTORE PUSH1 0x20 SWAP1 SWAP2 KECCAK256 ADD SLOAD PUSH2 0x100 DUP3 ADD MSTORE DUP4 SLOAD DUP5 SWAP1 PUSH1 0x3 SWAP1 DUP2 LT PUSH2 0x872 JUMPI PUSH2 0x872 PUSH2 0xEC4 JUMP JUMPDEST PUSH1 0x0 SWAP2 DUP3 MSTORE PUSH1 0x20 SWAP1 SWAP2 KECCAK256 ADD SLOAD PUSH2 0x120 DUP3 ADD MSTORE DUP4 SLOAD DUP5 SWAP1 PUSH1 0x4 SWAP1 DUP2 LT PUSH2 0x899 JUMPI PUSH2 0x899 PUSH2 0xEC4 JUMP JUMPDEST PUSH1 0x0 SWAP2 DUP3 MSTORE PUSH1 0x20 SWAP1 SWAP2 KECCAK256 ADD SLOAD PUSH2 0x140 DUP3 ADD MSTORE DUP4 SLOAD DUP5 SWAP1 PUSH1 0x5 SWAP1 DUP2 LT PUSH2 0x8C0 JUMPI PUSH2 0x8C0 PUSH2 0xEC4 JUMP JUMPDEST PUSH1 0x0 SWAP2 DUP3 MSTORE PUSH1 0x20 SWAP2 DUP3 SWAP1 KECCAK256 ADD SLOAD PUSH2 0x160 DUP4 ADD MSTORE DUP4 MLOAD PUSH2 0x180 DUP4 ADD MSTORE DUP4 ADD MLOAD PUSH2 0x1A0 DUP3 ADD MSTORE DUP4 SLOAD DUP5 SWAP1 PUSH1 0x6 SWAP1 DUP2 LT PUSH2 0x8F9 JUMPI PUSH2 0x8F9 PUSH2 0xEC4 JUMP JUMPDEST PUSH1 0x0 SWAP2 DUP3 MSTORE PUSH1 0x20 SWAP1 SWAP2 KECCAK256 ADD SLOAD PUSH2 0x1C0 DUP3 ADD MSTORE DUP4 SLOAD DUP5 SWAP1 PUSH1 0x7 SWAP1 DUP2 LT PUSH2 0x920 JUMPI PUSH2 0x920 PUSH2 0xEC4 JUMP JUMPDEST PUSH1 0x0 SWAP2 DUP3 MSTORE PUSH1 0x20 SWAP1 SWAP2 KECCAK256 ADD SLOAD PUSH2 0x1E0 DUP3 ADD MSTORE DUP4 SLOAD DUP5 SWAP1 PUSH1 0x8 SWAP1 DUP2 LT PUSH2 0x947 JUMPI PUSH2 0x947 PUSH2 0xEC4 JUMP JUMPDEST PUSH1 0x0 SWAP2 DUP3 MSTORE PUSH1 0x20 SWAP1 SWAP2 KECCAK256 ADD SLOAD PUSH2 0x200 DUP3 ADD MSTORE DUP4 SLOAD DUP5 SWAP1 PUSH1 0x9 SWAP1 DUP2 LT PUSH2 0x96E JUMPI PUSH2 0x96E PUSH2 0xEC4 JUMP JUMPDEST PUSH1 0x0 SWAP2 DUP3 MSTORE PUSH1 0x20 SWAP1 SWAP2 KECCAK256 ADD SLOAD PUSH2 0x220 DUP3 ADD MSTORE PUSH1 0xC0 DUP6 ADD CALLDATALOAD PUSH2 0x240 DUP3 ADD MSTORE PUSH1 0xE0 DUP6 ADD CALLDATALOAD PUSH2 0x260 DUP3 ADD MSTORE DUP4 SLOAD DUP5 SWAP1 PUSH1 0xA SWAP1 DUP2 LT PUSH2 0x9AB JUMPI PUSH2 0x9AB PUSH2 0xEC4 JUMP JUMPDEST PUSH1 0x0 SWAP2 DUP3 MSTORE PUSH1 0x20 SWAP1 SWAP2 KECCAK256 ADD SLOAD PUSH2 0x280 DUP3 ADD MSTORE DUP4 SLOAD DUP5 SWAP1 PUSH1 0xB SWAP1 DUP2 LT PUSH2 0x9D2 JUMPI PUSH2 0x9D2 PUSH2 0xEC4 JUMP JUMPDEST PUSH1 0x0 SWAP2 DUP3 MSTORE PUSH1 0x20 SWAP1 SWAP2 KECCAK256 ADD SLOAD PUSH2 0x2A0 DUP3 ADD MSTORE DUP4 SLOAD DUP5 SWAP1 PUSH1 0xC SWAP1 DUP2 LT PUSH2 0x9F9 JUMPI PUSH2 0x9F9 PUSH2 0xEC4 JUMP JUMPDEST PUSH1 0x0 SWAP2 DUP3 MSTORE PUSH1 0x20 SWAP1 SWAP2 KECCAK256 ADD SLOAD PUSH2 0x2C0 DUP3 ADD MSTORE DUP4 SLOAD DUP5 SWAP1 PUSH1 0xD SWAP1 DUP2 LT PUSH2 0xA20 JUMPI PUSH2 0xA20 PUSH2 0xEC4 JUMP JUMPDEST PUSH1 0x0 SWAP2 DUP3 MSTORE PUSH1 0x20 SWAP1 SWAP2 KECCAK256 ADD SLOAD PUSH2 0x2E0 DUP3 ADD MSTORE PUSH2 0xA3A PUSH2 0xBFB JUMP JUMPDEST PUSH1 0x0 PUSH1 0x20 DUP3 PUSH2 0x300 DUP6 PUSH1 0x8 PUSH2 0x7D0 GAS SUB STATICCALL SWAP1 POP DUP1 PUSH2 0xA6B JUMPI PUSH1 0x40 MLOAD PUSH4 0x4DF45E2F PUSH1 0xE0 SHL DUP2 MSTORE PUSH1 0x4 ADD PUSH1 0x40 MLOAD DUP1 SWAP2 SUB SWAP1 REVERT JUMPDEST POP MLOAD PUSH1 0x1 EQ SWAP6 SWAP5 POP POP POP POP POP JUMP JUMPDEST PUSH2 0xA81 PUSH2 0xBBE JUMP JUMPDEST PUSH2 0xA89 PUSH2 0xC19 JUMP JUMPDEST DUP4 MLOAD DUP2 MSTORE PUSH1 0x20 DUP1 DUP6 ADD MLOAD SWAP1 DUP3 ADD MSTORE PUSH1 0x40 DUP1 DUP3 ADD DUP5 SWAP1 MSTORE PUSH1 0x0 SWAP1 DUP4 PUSH1 0x60 DUP5 PUSH1 0x7 PUSH2 0x7D0 GAS SUB STATICCALL SWAP1 POP DUP1 PUSH2 0xAEC JUMPI PUSH1 0x40 MLOAD PUSH3 0x461BCD PUSH1 0xE5 SHL DUP2 MSTORE PUSH1 0x20 PUSH1 0x4 DUP3 ADD MSTORE PUSH1 0xC PUSH1 0x24 DUP3 ADD MSTORE PUSH12 0x1958D35D5B0819985A5B1959 PUSH1 0xA2 SHL PUSH1 0x44 DUP3 ADD MSTORE PUSH1 0x64 ADD PUSH2 0x5A1 JUMP JUMPDEST POP POP SWAP3 SWAP2 POP POP JUMP JUMPDEST PUSH2 0xAFC PUSH2 0xBBE JUMP JUMPDEST PUSH2 0xB04 PUSH2 0xC37 JUMP JUMPDEST DUP4 MLOAD DUP2 MSTORE PUSH1 0x20 DUP1 DUP6 ADD MLOAD DUP3 DUP3 ADD MSTORE DUP4 MLOAD PUSH1 0x40 DUP1 DUP5 ADD SWAP2 SWAP1 SWAP2 MSTORE SWAP1 DUP5 ADD MLOAD PUSH1 0x60 DUP4 ADD MSTORE PUSH1 0x0 SWAP1 DUP4 PUSH1 0x80 DUP5 PUSH1 0x6 PUSH2 0x7D0 GAS SUB STATICCALL SWAP1 POP DUP1 PUSH2 0xAEC JUMPI PUSH1 0x40 MLOAD PUSH3 0x461BCD PUSH1 0xE5 SHL DUP2 MSTORE PUSH1 0x20 PUSH1 0x4 DUP3 ADD MSTORE PUSH1 0xC PUSH1 0x24 DUP3 ADD MSTORE PUSH12 0x1958D059190819985A5B1959 PUSH1 0xA2 SHL PUSH1 0x44 DUP3 ADD MSTORE PUSH1 0x64 ADD PUSH2 0x5A1 JUMP JUMPDEST DUP3 DUP1 SLOAD DUP3 DUP3 SSTORE SWAP1 PUSH1 0x0 MSTORE PUSH1 0x20 PUSH1 0x0 KECCAK256 SWAP1 DUP2 ADD SWAP3 DUP3 ISZERO PUSH2 0xBAE JUMPI SWAP2 PUSH1 0x20 MUL DUP3 ADD JUMPDEST DUP3 DUP2 GT ISZERO PUSH2 0xBAE JUMPI DUP3 CALLDATALOAD DUP3 SSTORE SWAP2 PUSH1 0x20 ADD SWAP2 SWAP1 PUSH1 0x1 ADD SWAP1 PUSH2 0xB93 JUMP JUMPDEST POP PUSH2 0xBBA SWAP3 SWAP2 POP PUSH2 0xC55 JUMP JUMPDEST POP SWAP1 JUMP JUMPDEST PUSH1 0x40 MLOAD DUP1 PUSH1 0x40 ADD PUSH1 0x40 MSTORE DUP1 PUSH1 0x2 SWAP1 PUSH1 0x20 DUP3 MUL DUP1 CALLDATASIZE DUP4 CALLDATACOPY POP SWAP2 SWAP3 SWAP2 POP POP JUMP JUMPDEST PUSH1 0x40 MLOAD DUP1 PUSH2 0x300 ADD PUSH1 0x40 MSTORE DUP1 PUSH1 0x18 SWAP1 PUSH1 0x20 DUP3 MUL DUP1 CALLDATASIZE DUP4 CALLDATACOPY POP SWAP2 SWAP3 SWAP2 POP POP JUMP JUMPDEST PUSH1 0x40 MLOAD DUP1 PUSH1 0x20 ADD PUSH1 0x40 MSTORE DUP1 PUSH1 0x1 SWAP1 PUSH1 0x20 DUP3 MUL DUP1 CALLDATASIZE DUP4 CALLDATACOPY POP SWAP2 SWAP3 SWAP2 POP POP JUMP JUMPDEST PUSH1 0x40 MLOAD DUP1 PUSH1 0x60 ADD PUSH1 0x40 MSTORE DUP1 PUSH1 0x3 SWAP1 PUSH1 0x20 DUP3 MUL DUP1 CALLDATASIZE DUP4 CALLDATACOPY POP SWAP2 SWAP3 SWAP2 POP POP JUMP JUMPDEST PUSH1 0x40 MLOAD DUP1 PUSH1 0x80 ADD PUSH1 0x40 MSTORE DUP1 PUSH1 0x4 SWAP1 PUSH1 0x20 DUP3 MUL DUP1 CALLDATASIZE DUP4 CALLDATACOPY POP SWAP2 SWAP3 SWAP2 POP POP JUMP JUMPDEST JUMPDEST DUP1 DUP3 GT ISZERO PUSH2 0xBBA JUMPI PUSH1 0x0 DUP2 SSTORE PUSH1 0x1 ADD PUSH2 0xC56 JUMP JUMPDEST DUP1 CALLDATALOAD PUSH1 0x3 DUP2 LT PUSH2 0xC79 JUMPI PUSH1 0x0 DUP1 REVERT JUMPDEST SWAP2 SWAP1 POP JUMP JUMPDEST PUSH1 0x0 DUP1 DUP4 PUSH1 0x1F DUP5 ADD SLT PUSH2 0xC90 JUMPI PUSH1 0x0 DUP1 REVERT JUMPDEST POP DUP2 CALLDATALOAD PUSH8 0xFFFFFFFFFFFFFFFF DUP2 GT ISZERO PUSH2 0xCA8 JUMPI PUSH1 0x0 DUP1 REVERT JUMPDEST PUSH1 0x20 DUP4 ADD SWAP2 POP DUP4 PUSH1 0x20 DUP3 PUSH1 0x5 SHL DUP6 ADD ADD GT ISZERO PUSH2 0xCC3 JUMPI PUSH1 0x0 DUP1 REVERT JUMPDEST SWAP3 POP SWAP3 SWAP1 POP JUMP JUMPDEST PUSH1 0x0 DUP1 PUSH1 0x0 PUSH1 0x40 DUP5 DUP7 SUB SLT ISZERO PUSH2 0xCDF JUMPI PUSH1 0x0 DUP1 REVERT JUMPDEST PUSH2 0xCE8 DUP5 PUSH2 0xC6A JUMP JUMPDEST SWAP3 POP PUSH1 0x20 DUP5 ADD CALLDATALOAD PUSH8 0xFFFFFFFFFFFFFFFF DUP2 GT ISZERO PUSH2 0xD04 JUMPI PUSH1 0x0 DUP1 REVERT JUMPDEST PUSH2 0xD10 DUP7 DUP3 DUP8 ADD PUSH2 0xC7E JUMP JUMPDEST SWAP5 SWAP8 SWAP1 SWAP7 POP SWAP4 SWAP5 POP POP POP POP JUMP JUMPDEST PUSH1 0x0 DUP1 PUSH1 0x40 DUP4 DUP6 SUB SLT ISZERO PUSH2 0xD30 JUMPI PUSH1 0x0 DUP1 REVERT JUMPDEST PUSH2 0xD39 DUP4 PUSH2 0xC6A JUMP JUMPDEST SWAP5 PUSH1 0x20 SWAP4 SWAP1 SWAP4 ADD CALLDATALOAD SWAP4 POP POP POP JUMP JUMPDEST PUSH1 0x0 PUSH1 0x20 DUP3 DUP5 SUB SLT ISZERO PUSH2 0xD59 JUMPI PUSH1 0x0 DUP1 REVERT JUMPDEST PUSH2 0xD62 DUP3 PUSH2 0xC6A JUMP JUMPDEST SWAP4 SWAP3 POP POP POP JUMP JUMPDEST PUSH1 0x0 DUP1 PUSH1 0x0 DUP1 DUP5 DUP7 SUB PUSH2 0x140 DUP2 SLT ISZERO PUSH2 0xD81 JUMPI PUSH1 0x0 DUP1 REVERT JUMPDEST PUSH2 0xD8A DUP7 PUSH2 0xC6A JUMP JUMPDEST SWAP5 POP PUSH2 0x100 PUSH1 0x1F NOT DUP3 ADD SLT ISZERO PUSH2 0xD9F JUMPI PUSH1 0x0 DUP1 REVERT JUMPDEST POP PUSH1 0x20 DUP6 ADD SWAP3 POP PUSH2 0x120 DUP6 ADD CALLDATALOAD PUSH8 0xFFFFFFFFFFFFFFFF DUP2 GT ISZERO PUSH2 0xDC1 JUMPI PUSH1 0x0 DUP1 REVERT JUMPDEST PUSH2 0xDCD DUP8 DUP3 DUP9 ADD PUSH2 0xC7E JUMP JUMPDEST SWAP6 SWAP9 SWAP5 SWAP8 POP SWAP6 POP POP POP POP JUMP JUMPDEST PUSH1 0x0 PUSH1 0x20 DUP3 DUP5 SUB SLT ISZERO PUSH2 0xDEB JUMPI PUSH1 0x0 DUP1 REVERT JUMPDEST DUP2 CALLDATALOAD PUSH1 0x1 PUSH1 0x1 PUSH1 0xA0 SHL SUB DUP2 AND DUP2 EQ PUSH2 0xD62 JUMPI PUSH1 0x0 DUP1 REVERT JUMPDEST PUSH4 0x4E487B71 PUSH1 0xE0 SHL PUSH1 0x0 MSTORE PUSH1 0x11 PUSH1 0x4 MSTORE PUSH1 0x24 PUSH1 0x0 REVERT JUMPDEST DUP2 DUP2 SUB DUP2 DUP2 GT ISZERO PUSH2 0xE2B JUMPI PUSH2 0xE2B PUSH2 0xE02 JUMP JUMPDEST SWAP3 SWAP2 POP POP JUMP JUMPDEST PUSH4 0x4E487B71 PUSH1 0xE0 SHL PUSH1 0x0 MSTORE PUSH1 0x12 PUSH1 0x4 MSTORE PUSH1 0x24 PUSH1 0x0 REVERT JUMPDEST PUSH1 0x0 DUP3 PUSH2 0xE56 JUMPI PUSH2 0xE56 PUSH2 0xE31 JUMP JUMPDEST POP DIV SWAP1 JUMP JUMPDEST DUP1 DUP3 MUL DUP2 ISZERO DUP3 DUP3 DIV DUP5 EQ OR PUSH2 0xE2B JUMPI PUSH2 0xE2B PUSH2 0xE02 JUMP JUMPDEST DUP1 DUP3 ADD DUP1 DUP3 GT ISZERO PUSH2 0xE2B JUMPI PUSH2 0xE2B PUSH2 0xE02 JUMP JUMPDEST PUSH4 0x4E487B71 PUSH1 0xE0 SHL PUSH1 0x0 MSTORE PUSH1 0x21 PUSH1 0x4 MSTORE PUSH1 0x24 PUSH1 0x0 REVERT JUMPDEST PUSH1 0x0 PUSH1 0x1 PUSH1 0x1 PUSH1 0xFB SHL SUB DUP4 GT ISZERO PUSH2 0xEB1 JUMPI PUSH1 0x0 DUP1 REVERT JUMPDEST DUP3 PUSH1 0x5 SHL DUP1 DUP6 DUP5 CALLDATACOPY SWAP2 SWAP1 SWAP2 ADD SWAP4 SWAP3 POP POP POP JUMP JUMPDEST PUSH4 0x4E487B71 PUSH1 0xE0 SHL PUSH1 0x0 MSTORE PUSH1 0x32 PUSH1 0x4 MSTORE PUSH1 0x24 PUSH1 0x0 REVERT JUMPDEST PUSH1 0x0 PUSH1 0x1 DUP3 ADD PUSH2 0xEEC JUMPI PUSH2 0xEEC PUSH2 0xE02 JUMP JUMPDEST POP PUSH1 0x1 ADD SWAP1 JUMP JUMPDEST PUSH1 0x0 DUP3 PUSH2 0xF02 JUMPI PUSH2 0xF02 PUSH2 0xE31 JUMP JUMPDEST POP MOD SWAP1 JUMP INVALID LOG2 PUSH5 0x6970667358 0x22 SLT KECCAK256 PUSH30 0xB13587A8C1B21E768ED8D7A1FEE55E6427A81FAAFB5DFEE2D158074896B AND PUSH5 0x736F6C6343 STOP ADDMOD EQ STOP CALLER "},"methodIdentifiers":{"getVerificationKeyHash(uint8)":"b6988896","isVKSet(uint8)":"a0365bf4","owner()":"8da5cb5b","renounceOwnership()":"715018a6","setVerificationKey(uint8,uint256[])":"68d76f00","transferOwnership(address)":"f2fde38b","verificationKeys(uint8,uint256)":"70f6fac9","verify(uint8,(uint256[2],uint256[2][2],uint256[2]),uint256[])":"9d1ef9c2","vkHashes(uint8)":"784224f8"}}}}}